{
  "_format": "hh-sol-artifact-1",
  "contractName": "NFTMarket",
  "sourceName": "contracts/NFTMarket.sol",
  "abi": [
    {
      "inputs": [],
      "stateMutability": "nonpayable",
      "type": "constructor"
    },
    {
      "anonymous": false,
      "inputs": [
        {
          "indexed": true,
          "internalType": "uint256",
          "name": "itemId",
          "type": "uint256"
        },
        {
          "indexed": true,
          "internalType": "address",
          "name": "nftContract",
          "type": "address"
        },
        {
          "indexed": true,
          "internalType": "uint256",
          "name": "tokenId",
          "type": "uint256"
        },
        {
          "components": [
            {
              "internalType": "string",
              "name": "name",
              "type": "string"
            },
            {
              "internalType": "string",
              "name": "nic",
              "type": "string"
            },
            {
              "internalType": "address payable",
              "name": "_address",
              "type": "address"
            }
          ],
          "indexed": false,
          "internalType": "struct NFTMarket.Owner[]",
          "name": "owners",
          "type": "tuple[]"
        },
        {
          "indexed": false,
          "internalType": "uint256",
          "name": "price",
          "type": "uint256"
        },
        {
          "indexed": false,
          "internalType": "bool",
          "name": "sold",
          "type": "bool"
        }
      ],
      "name": "MarketItemCreated",
      "type": "event"
    },
    {
      "inputs": [
        {
          "internalType": "address",
          "name": "nftContract",
          "type": "address"
        },
        {
          "internalType": "uint256",
          "name": "itemId",
          "type": "uint256"
        },
        {
          "internalType": "uint256",
          "name": "new_price",
          "type": "uint256"
        }
      ],
      "name": "changeMarketItemPrice",
      "outputs": [],
      "stateMutability": "nonpayable",
      "type": "function"
    },
    {
      "inputs": [
        {
          "internalType": "address",
          "name": "nftContract",
          "type": "address"
        },
        {
          "internalType": "uint256",
          "name": "tokenId",
          "type": "uint256"
        },
        {
          "internalType": "uint256",
          "name": "price",
          "type": "uint256"
        },
        {
          "internalType": "string",
          "name": "name",
          "type": "string"
        },
        {
          "internalType": "string",
          "name": "nic",
          "type": "string"
        },
        {
          "internalType": "address",
          "name": "owner_address",
          "type": "address"
        }
      ],
      "name": "createMarketItem",
      "outputs": [],
      "stateMutability": "payable",
      "type": "function"
    },
    {
      "inputs": [
        {
          "internalType": "address",
          "name": "nftContract",
          "type": "address"
        },
        {
          "internalType": "uint256",
          "name": "itemId",
          "type": "uint256"
        },
        {
          "internalType": "string",
          "name": "new_owner_name",
          "type": "string"
        },
        {
          "internalType": "string",
          "name": "new_owner_nic",
          "type": "string"
        }
      ],
      "name": "createMarketSale",
      "outputs": [],
      "stateMutability": "payable",
      "type": "function"
    },
    {
      "inputs": [],
      "name": "fetchAllMarketItems",
      "outputs": [
        {
          "components": [
            {
              "internalType": "uint256",
              "name": "itemId",
              "type": "uint256"
            },
            {
              "internalType": "address",
              "name": "nftContract",
              "type": "address"
            },
            {
              "internalType": "uint256",
              "name": "tokenId",
              "type": "uint256"
            },
            {
              "components": [
                {
                  "internalType": "string",
                  "name": "name",
                  "type": "string"
                },
                {
                  "internalType": "string",
                  "name": "nic",
                  "type": "string"
                },
                {
                  "internalType": "address payable",
                  "name": "_address",
                  "type": "address"
                }
              ],
              "internalType": "struct NFTMarket.Owner[]",
              "name": "owners",
              "type": "tuple[]"
            },
            {
              "internalType": "uint256",
              "name": "price",
              "type": "uint256"
            },
            {
              "internalType": "bool",
              "name": "sold",
              "type": "bool"
            }
          ],
          "internalType": "struct NFTMarket.FullMarketItem[]",
          "name": "",
          "type": "tuple[]"
        }
      ],
      "stateMutability": "view",
      "type": "function"
    },
    {
      "inputs": [],
      "name": "fetchMyMarketItems",
      "outputs": [
        {
          "components": [
            {
              "internalType": "uint256",
              "name": "itemId",
              "type": "uint256"
            },
            {
              "internalType": "address",
              "name": "nftContract",
              "type": "address"
            },
            {
              "internalType": "uint256",
              "name": "tokenId",
              "type": "uint256"
            },
            {
              "components": [
                {
                  "internalType": "string",
                  "name": "name",
                  "type": "string"
                },
                {
                  "internalType": "string",
                  "name": "nic",
                  "type": "string"
                },
                {
                  "internalType": "address payable",
                  "name": "_address",
                  "type": "address"
                }
              ],
              "internalType": "struct NFTMarket.Owner[]",
              "name": "owners",
              "type": "tuple[]"
            },
            {
              "internalType": "uint256",
              "name": "price",
              "type": "uint256"
            },
            {
              "internalType": "bool",
              "name": "sold",
              "type": "bool"
            }
          ],
          "internalType": "struct NFTMarket.FullMarketItem[]",
          "name": "",
          "type": "tuple[]"
        }
      ],
      "stateMutability": "view",
      "type": "function"
    },
    {
      "inputs": [],
      "name": "getListingPrice",
      "outputs": [
        {
          "internalType": "uint256",
          "name": "",
          "type": "uint256"
        }
      ],
      "stateMutability": "view",
      "type": "function"
    },
    {
      "inputs": [
        {
          "internalType": "uint256",
          "name": "_listingPrice",
          "type": "uint256"
        }
      ],
      "name": "updateListingPrice",
      "outputs": [],
      "stateMutability": "nonpayable",
      "type": "function"
    },
    {
      "inputs": [
        {
          "internalType": "address",
          "name": "nftContract",
          "type": "address"
        },
        {
          "internalType": "uint256",
          "name": "itemId",
          "type": "uint256"
        },
        {
          "internalType": "bool",
          "name": "soldStatus",
          "type": "bool"
        }
      ],
      "name": "updateMarketItemSoldStatus",
      "outputs": [],
      "stateMutability": "nonpayable",
      "type": "function"
    }
  ],
  "bytecode": "0x60806040526608e1bc9bf0400060045534801561001b57600080fd5b50600160008190555033600360006101000a81548173ffffffffffffffffffffffffffffffffffffffff021916908373ffffffffffffffffffffffffffffffffffffffff1602179055506126bc806100746000396000f3fe60806040526004361061007b5760003560e01c80639702f3271161004e5780639702f3271461010c578063ae677aa314610135578063dd3385b71461015e578063dfb6452b146101895761007b565b80631113186e1461008057806312e855851461009c57806324067aaf146100c75780638ba89594146100f0575b600080fd5b61009a600480360381019061009591906116bf565b6101b4565b005b3480156100a857600080fd5b506100b1610596565b6040516100be9190611793565b60405180910390f35b3480156100d357600080fd5b506100ee60048036038101906100e991906117e6565b6105a0565b005b61010a60048036038101906101059190611839565b610701565b005b34801561011857600080fd5b50610133600480360381019061012e91906118d8565b610a87565b005b34801561014157600080fd5b5061015c6004803603810190610157919061192b565b610bd5565b005b34801561016a57600080fd5b50610173610c6f565b6040516101809190611c89565b60405180910390f35b34801561019557600080fd5b5061019e6110b8565b6040516101ab9190611c89565b60405180910390f35b6002600054036101f9576040517f08c379a00000000000000000000000000000000000000000000000000000000081526004016101f090611d08565b60405180910390fd5b600260008190555060008411610244576040517f08c379a000000000000000000000000000000000000000000000000000000000815260040161023b90611d74565b60405180910390fd5b6004543414610288576040517f08c379a000000000000000000000000000000000000000000000000000000000815260040161027f90611e06565b60405180910390fd5b6102918661143c565b6102d0576040517f08c379a00000000000000000000000000000000000000000000000000000000081526004016102c790611e72565b60405180910390fd5b6102da600161145f565b60006102e66001611475565b9050600060405180606001604052808681526020018581526020018473ffffffffffffffffffffffffffffffffffffffff16815250905060066000838152602001908152602001600020819080600181540180825580915050600190039060005260206000209060030201600090919091909150600082015181600001908161036f919061209e565b506020820151816001019081610385919061209e565b5060408201518160020160006101000a81548173ffffffffffffffffffffffffffffffffffffffff021916908373ffffffffffffffffffffffffffffffffffffffff16021790555050506040518060a001604052808381526020018973ffffffffffffffffffffffffffffffffffffffff16815260200188815260200187815260200160001515815250600560008481526020019081526020016000206000820151816000015560208201518160010160006101000a81548173ffffffffffffffffffffffffffffffffffffffff021916908373ffffffffffffffffffffffffffffffffffffffff160217905550604082015181600201556060820151816003015560808201518160040160006101000a81548160ff0219169083151502179055509050508773ffffffffffffffffffffffffffffffffffffffff166323b872dd3383604001518a6040518463ffffffff1660e01b81526004016104eb9392919061217f565b600060405180830381600087803b15801561050557600080fd5b505af1158015610519573d6000803e3d6000fd5b50505050868873ffffffffffffffffffffffffffffffffffffffff16837ffbfde57e09e4cd4d14bf470972cf6f151bb22ddaf0c7325d9f9075594752f70d600660008781526020019081526020016000208a600060405161057c939291906123b8565b60405180910390a450506001600081905550505050505050565b6000600454905090565b6105a98361143c565b6105e8576040517f08c379a00000000000000000000000000000000000000000000000000000000081526004016105df90611e72565b60405180910390fd5b600660008381526020019081526020016000206001600660008581526020019081526020016000208054905061061e9190612425565b8154811061062f5761062e612459565b5b906000526020600020906003020160020160009054906101000a900473ffffffffffffffffffffffffffffffffffffffff1673ffffffffffffffffffffffffffffffffffffffff163373ffffffffffffffffffffffffffffffffffffffff16146106ce576040517f08c379a00000000000000000000000000000000000000000000000000000000081526004016106c5906124fa565b60405180910390fd5b806005600084815260200190815260200160002060040160006101000a81548160ff021916908315150217905550505050565b600260005403610746576040517f08c379a000000000000000000000000000000000000000000000000000000000815260040161073d90611d08565b60405180910390fd5b60026000819055506000600560008581526020019081526020016000206003015490506000600560008681526020019081526020016000206002015490508134146107c6576040517f08c379a00000000000000000000000000000000000000000000000000000000081526004016107bd9061258c565b60405180910390fd5b600060066000878152602001908152602001600020805490509050600660008781526020019081526020016000206001826108019190612425565b8154811061081257610811612459565b5b906000526020600020906003020160020160009054906101000a900473ffffffffffffffffffffffffffffffffffffffff1673ffffffffffffffffffffffffffffffffffffffff166108fc349081150290604051600060405180830381858888f19350505050158015610889573d6000803e3d6000fd5b508673ffffffffffffffffffffffffffffffffffffffff166323b872dd600660008981526020019081526020016000206001846108c69190612425565b815481106108d7576108d6612459565b5b906000526020600020906003020160020160009054906101000a900473ffffffffffffffffffffffffffffffffffffffff1633856040518463ffffffff1660e01b81526004016109299392919061217f565b600060405180830381600087803b15801561094357600080fd5b505af1158015610957573d6000803e3d6000fd5b505050506006600087815260200190815260200160002060405180606001604052808781526020018681526020013373ffffffffffffffffffffffffffffffffffffffff16815250908060018154018082558091505060019003906000526020600020906003020160009091909190915060008201518160000190816109dd919061209e565b5060208201518160010190816109f3919061209e565b5060408201518160020160006101000a81548173ffffffffffffffffffffffffffffffffffffffff021916908373ffffffffffffffffffffffffffffffffffffffff160217905550505060016005600088815260200190815260200160002060040160006101000a81548160ff021916908315150217905550610a76600261145f565b505050600160008190555050505050565b610a908361143c565b610acf576040517f08c379a0000000000000000000000000000000000000000000000000000000008152600401610ac690611e72565b60405180910390fd5b6006600083815260200190815260200160002060016006600085815260200190815260200160002080549050610b059190612425565b81548110610b1657610b15612459565b5b906000526020600020906003020160020160009054906101000a900473ffffffffffffffffffffffffffffffffffffffff1673ffffffffffffffffffffffffffffffffffffffff163373ffffffffffffffffffffffffffffffffffffffff1614610bb5576040517f08c379a0000000000000000000000000000000000000000000000000000000008152600401610bac906124fa565b60405180910390fd5b806005600084815260200190815260200160002060030181905550505050565b600360009054906101000a900473ffffffffffffffffffffffffffffffffffffffff1673ffffffffffffffffffffffffffffffffffffffff163373ffffffffffffffffffffffffffffffffffffffff1614610c65576040517f08c379a0000000000000000000000000000000000000000000000000000000008152600401610c5c9061261e565b60405180910390fd5b8060048190555050565b60606000610c7d6001611475565b90506000808267ffffffffffffffff811115610c9c57610c9b611594565b5b604051908082528060200260200182016040528015610cd557816020015b610cc2611483565b815260200190600190039081610cba5790505b5090506000600190505b8381116110ab5760006006600083815260200190815260200160002060016006600085815260200190815260200160002080549050610d1e9190612425565b81548110610d2f57610d2e612459565b5b906000526020600020906003020160020160009054906101000a900473ffffffffffffffffffffffffffffffffffffffff1690503373ffffffffffffffffffffffffffffffffffffffff168173ffffffffffffffffffffffffffffffffffffffff16036110975760006040518060c00160405280600560008681526020019081526020016000206000015481526020016005600086815260200190815260200160002060010160009054906101000a900473ffffffffffffffffffffffffffffffffffffffff1673ffffffffffffffffffffffffffffffffffffffff1681526020016005600086815260200190815260200160002060020154815260200160066000868152602001908152602001600020805480602002602001604051908101604052809291908181526020016000905b8282101561100c5783829060005260206000209060030201604051806060016040529081600082018054610e9390611ec1565b80601f0160208091040260200160405190810160405280929190818152602001828054610ebf90611ec1565b8015610f0c5780601f10610ee157610100808354040283529160200191610f0c565b820191906000526020600020905b815481529060010190602001808311610eef57829003601f168201915b50505050508152602001600182018054610f2590611ec1565b80601f0160208091040260200160405190810160405280929190818152602001828054610f5190611ec1565b8015610f9e5780601f10610f7357610100808354040283529160200191610f9e565b820191906000526020600020905b815481529060010190602001808311610f8157829003601f168201915b505050505081526020016002820160009054906101000a900473ffffffffffffffffffffffffffffffffffffffff1673ffffffffffffffffffffffffffffffffffffffff1673ffffffffffffffffffffffffffffffffffffffff168152505081526020019060010190610e60565b505050508152602001600560008681526020019081526020016000206003015481526020016005600086815260200190815260200160002060040160009054906101000a900460ff1615158152509050808460018561106b9190612425565b8151811061107c5761107b612459565b5b602002602001018190525084806110929061263e565b955050505b5080806110a39061263e565b915050610cdf565b5081815280935050505090565b606060006110c66001611475565b905060008167ffffffffffffffff8111156110e4576110e3611594565b5b60405190808252806020026020018201604052801561111d57816020015b61110a611483565b8152602001906001900390816111025790505b5090506000600190505b8281116114335760006040518060c00160405280600560008581526020019081526020016000206000015481526020016005600085815260200190815260200160002060010160009054906101000a900473ffffffffffffffffffffffffffffffffffffffff1673ffffffffffffffffffffffffffffffffffffffff1681526020016005600085815260200190815260200160002060020154815260200160066000858152602001908152602001600020805480602002602001604051908101604052809291908181526020016000905b828210156113a4578382906000526020600020906003020160405180606001604052908160008201805461122b90611ec1565b80601f016020809104026020016040519081016040528092919081815260200182805461125790611ec1565b80156112a45780601f10611279576101008083540402835291602001916112a4565b820191906000526020600020905b81548152906001019060200180831161128757829003601f168201915b505050505081526020016001820180546112bd90611ec1565b80601f01602080910402602001604051908101604052809291908181526020018280546112e990611ec1565b80156113365780601f1061130b57610100808354040283529160200191611336565b820191906000526020600020905b81548152906001019060200180831161131957829003601f168201915b505050505081526020016002820160009054906101000a900473ffffffffffffffffffffffffffffffffffffffff1673ffffffffffffffffffffffffffffffffffffffff1673ffffffffffffffffffffffffffffffffffffffff1681525050815260200190600101906111f8565b505050508152602001600560008581526020019081526020016000206003015481526020016005600085815260200190815260200160002060040160009054906101000a900460ff161515815250905080836001846114039190612425565b8151811061141457611413612459565b5b602002602001018190525050808061142b9061263e565b915050611127565b50809250505090565b6000808273ffffffffffffffffffffffffffffffffffffffff163b119050919050565b6001816000016000828254019250508190555050565b600081600001549050919050565b6040518060c0016040528060008152602001600073ffffffffffffffffffffffffffffffffffffffff1681526020016000815260200160608152602001600081526020016000151581525090565b6000604051905090565b600080fd5b600080fd5b600073ffffffffffffffffffffffffffffffffffffffff82169050919050565b6000611510826114e5565b9050919050565b61152081611505565b811461152b57600080fd5b50565b60008135905061153d81611517565b92915050565b6000819050919050565b61155681611543565b811461156157600080fd5b50565b6000813590506115738161154d565b92915050565b600080fd5b600080fd5b6000601f19601f8301169050919050565b7f4e487b7100000000000000000000000000000000000000000000000000000000600052604160045260246000fd5b6115cc82611583565b810181811067ffffffffffffffff821117156115eb576115ea611594565b5b80604052505050565b60006115fe6114d1565b905061160a82826115c3565b919050565b600067ffffffffffffffff82111561162a57611629611594565b5b61163382611583565b9050602081019050919050565b82818337600083830152505050565b600061166261165d8461160f565b6115f4565b90508281526020810184848401111561167e5761167d61157e565b5b611689848285611640565b509392505050565b600082601f8301126116a6576116a5611579565b5b81356116b684826020860161164f565b91505092915050565b60008060008060008060c087890312156116dc576116db6114db565b5b60006116ea89828a0161152e565b96505060206116fb89828a01611564565b955050604061170c89828a01611564565b945050606087013567ffffffffffffffff81111561172d5761172c6114e0565b5b61173989828a01611691565b935050608087013567ffffffffffffffff81111561175a576117596114e0565b5b61176689828a01611691565b92505060a061177789828a0161152e565b9150509295509295509295565b61178d81611543565b82525050565b60006020820190506117a86000830184611784565b92915050565b60008115159050919050565b6117c3816117ae565b81146117ce57600080fd5b50565b6000813590506117e0816117ba565b92915050565b6000806000606084860312156117ff576117fe6114db565b5b600061180d8682870161152e565b935050602061181e86828701611564565b925050604061182f868287016117d1565b9150509250925092565b60008060008060808587031215611853576118526114db565b5b60006118618782880161152e565b945050602061187287828801611564565b935050604085013567ffffffffffffffff811115611893576118926114e0565b5b61189f87828801611691565b925050606085013567ffffffffffffffff8111156118c0576118bf6114e0565b5b6118cc87828801611691565b91505092959194509250565b6000806000606084860312156118f1576118f06114db565b5b60006118ff8682870161152e565b935050602061191086828701611564565b925050604061192186828701611564565b9150509250925092565b600060208284031215611941576119406114db565b5b600061194f84828501611564565b91505092915050565b600081519050919050565b600082825260208201905092915050565b6000819050602082019050919050565b61198d81611543565b82525050565b61199c81611505565b82525050565b600081519050919050565b600082825260208201905092915050565b6000819050602082019050919050565b600081519050919050565b600082825260208201905092915050565b60005b83811015611a085780820151818401526020810190506119ed565b60008484015250505050565b6000611a1f826119ce565b611a2981856119d9565b9350611a398185602086016119ea565b611a4281611583565b840191505092915050565b6000611a58826114e5565b9050919050565b611a6881611a4d565b82525050565b60006060830160008301518482036000860152611a8b8282611a14565b91505060208301518482036020860152611aa58282611a14565b9150506040830151611aba6040860182611a5f565b508091505092915050565b6000611ad18383611a6e565b905092915050565b6000602082019050919050565b6000611af1826119a2565b611afb81856119ad565b935083602082028501611b0d856119be565b8060005b85811015611b495784840389528151611b2a8582611ac5565b9450611b3583611ad9565b925060208a01995050600181019050611b11565b50829750879550505050505092915050565b611b64816117ae565b82525050565b600060c083016000830151611b826000860182611984565b506020830151611b956020860182611993565b506040830151611ba86040860182611984565b5060608301518482036060860152611bc08282611ae6565b9150506080830151611bd56080860182611984565b5060a0830151611be860a0860182611b5b565b508091505092915050565b6000611bff8383611b6a565b905092915050565b6000602082019050919050565b6000611c1f82611958565b611c298185611963565b935083602082028501611c3b85611974565b8060005b85811015611c775784840389528151611c588582611bf3565b9450611c6383611c07565b925060208a01995050600181019050611c3f565b50829750879550505050505092915050565b60006020820190508181036000830152611ca38184611c14565b905092915050565b600082825260208201905092915050565b7f5265656e7472616e637947756172643a207265656e7472616e742063616c6c00600082015250565b6000611cf2601f83611cab565b9150611cfd82611cbc565b602082019050919050565b60006020820190508181036000830152611d2181611ce5565b9050919050565b7f5072696365206d757374206265206174206c6561737420312077656900000000600082015250565b6000611d5e601c83611cab565b9150611d6982611d28565b602082019050919050565b60006020820190508181036000830152611d8d81611d51565b9050919050565b7f5061796d656e74206d75737420626520657175616c20746f206c697374696e6760008201527f2070726963650000000000000000000000000000000000000000000000000000602082015250565b6000611df0602683611cab565b9150611dfb82611d94565b604082019050919050565b60006020820190508181036000830152611e1f81611de3565b9050919050565b7f496e76616c6964204e465420636f6e7472616374206164647265737300000000600082015250565b6000611e5c601c83611cab565b9150611e6782611e26565b602082019050919050565b60006020820190508181036000830152611e8b81611e4f565b9050919050565b7f4e487b7100000000000000000000000000000000000000000000000000000000600052602260045260246000fd5b60006002820490506001821680611ed957607f821691505b602082108103611eec57611eeb611e92565b5b50919050565b60008190508160005260206000209050919050565b60006020601f8301049050919050565b600082821b905092915050565b600060088302611f547fffffffffffffffffffffffffffffffffffffffffffffffffffffffffffffffff82611f17565b611f5e8683611f17565b95508019841693508086168417925050509392505050565b6000819050919050565b6000611f9b611f96611f9184611543565b611f76565b611543565b9050919050565b6000819050919050565b611fb583611f80565b611fc9611fc182611fa2565b848454611f24565b825550505050565b600090565b611fde611fd1565b611fe9818484611fac565b505050565b5b8181101561200d57612002600082611fd6565b600181019050611fef565b5050565b601f8211156120525761202381611ef2565b61202c84611f07565b8101602085101561203b578190505b61204f61204785611f07565b830182611fee565b50505b505050565b600082821c905092915050565b600061207560001984600802612057565b1980831691505092915050565b600061208e8383612064565b9150826002028217905092915050565b6120a7826119ce565b67ffffffffffffffff8111156120c0576120bf611594565b5b6120ca8254611ec1565b6120d5828285612011565b600060209050601f83116001811461210857600084156120f6578287015190505b6121008582612082565b865550612168565b601f19841661211686611ef2565b60005b8281101561213e57848901518255600182019150602085019450602081019050612119565b8683101561215b5784890151612157601f891682612064565b8355505b6001600288020188555050505b505050505050565b61217981611505565b82525050565b60006060820190506121946000830186612170565b6121a16020830185612170565b6121ae6040830184611784565b949350505050565b600081549050919050565b600082825260208201905092915050565b60008190508160005260206000209050919050565b600081546121f481611ec1565b6121fe81866119d9565b94506001821660008114612219576001811461222f57612262565b60ff198316865281151560200286019350612262565b61223885611ef2565b60005b8381101561225a5781548189015260018201915060208101905061223b565b808801955050505b50505092915050565b60008160001c9050919050565b600073ffffffffffffffffffffffffffffffffffffffff82169050919050565b60006122ab6122a68361226b565b612278565b9050919050565b600060608301600080840185830360008701526122cf83826121e7565b9250506001840185830360208701526122e883826121e7565b925050600284015490506122fb81612298565b6123086040870182611a5f565b50819250505092915050565b600061232083836122b2565b905092915050565b6000600382019050919050565b6000612340826121b6565b61234a81856121c1565b93508360208202850161235c856121d2565b8060005b85811015612397578484038952816123788582612314565b945061238383612328565b925060208a01995050600181019050612360565b50829750879550505050505092915050565b6123b2816117ae565b82525050565b600060608201905081810360008301526123d28186612335565b90506123e16020830185611784565b6123ee60408301846123a9565b949350505050565b7f4e487b7100000000000000000000000000000000000000000000000000000000600052601160045260246000fd5b600061243082611543565b915061243b83611543565b9250828203905081811115612453576124526123f6565b5b92915050565b7f4e487b7100000000000000000000000000000000000000000000000000000000600052603260045260246000fd5b7f596f7520617265206e6f7420746865206f776e6572206f662074686973204e4660008201527f5400000000000000000000000000000000000000000000000000000000000000602082015250565b60006124e4602183611cab565b91506124ef82612488565b604082019050919050565b60006020820190508181036000830152612513816124d7565b9050919050565b7f506c65617365207375626d6974207468652061736b696e67207072696365206960008201527f6e206f7264657220746f20636f6d706c65746520746865207075726368617365602082015250565b6000612576604083611cab565b91506125818261251a565b604082019050919050565b600060208201905081810360008301526125a581612569565b9050919050565b7f46756e6374696f6e2061636365737369626c65206f6e6c79206279207468652060008201527f6f776e6572000000000000000000000000000000000000000000000000000000602082015250565b6000612608602583611cab565b9150612613826125ac565b604082019050919050565b60006020820190508181036000830152612637816125fb565b9050919050565b600061264982611543565b91507fffffffffffffffffffffffffffffffffffffffffffffffffffffffffffffffff820361267b5761267a6123f6565b5b60018201905091905056fea26469706673582212209cd69012d663d589709480e644b3e00959fe563dd397e8f1c888062a2fc0614f64736f6c63430008130033",
  "linkReferences": {},
  "deployedLinkReferences": {}
}