{
  "_format": "hh-sol-artifact-1",
  "contractName": "NFTMarket",
  "sourceName": "contracts/NFTMarket.sol",
  "abi": [
    {
      "inputs": [],
      "stateMutability": "nonpayable",
      "type": "constructor"
    },
    {
      "anonymous": false,
      "inputs": [
        {
          "indexed": true,
          "internalType": "uint256",
          "name": "itemId",
          "type": "uint256"
        },
        {
          "indexed": true,
          "internalType": "address",
          "name": "nftContract",
          "type": "address"
        },
        {
          "indexed": true,
          "internalType": "uint256",
          "name": "tokenId",
          "type": "uint256"
        },
        {
          "components": [
            {
              "internalType": "string",
              "name": "name",
              "type": "string"
            },
            {
              "internalType": "string",
              "name": "nic",
              "type": "string"
            },
            {
              "internalType": "address payable",
              "name": "_address",
              "type": "address"
            }
          ],
          "indexed": false,
          "internalType": "struct NFTMarket.Owner[]",
          "name": "owners",
          "type": "tuple[]"
        },
        {
          "indexed": false,
          "internalType": "uint256",
          "name": "price",
          "type": "uint256"
        },
        {
          "indexed": false,
          "internalType": "bool",
          "name": "sold",
          "type": "bool"
        }
      ],
      "name": "MarketItemCreated",
      "type": "event"
    },
    {
      "inputs": [
        {
          "internalType": "address",
          "name": "nftContract",
          "type": "address"
        },
        {
          "internalType": "uint256",
          "name": "tokenId",
          "type": "uint256"
        },
        {
          "internalType": "uint256",
          "name": "price",
          "type": "uint256"
        },
        {
          "internalType": "string",
          "name": "name",
          "type": "string"
        },
        {
          "internalType": "string",
          "name": "nic",
          "type": "string"
        }
      ],
      "name": "createMarketItem",
      "outputs": [],
      "stateMutability": "payable",
      "type": "function"
    },
    {
      "inputs": [
        {
          "internalType": "address",
          "name": "nftContract",
          "type": "address"
        },
        {
          "internalType": "uint256",
          "name": "itemId",
          "type": "uint256"
        },
        {
          "internalType": "string",
          "name": "name",
          "type": "string"
        },
        {
          "internalType": "string",
          "name": "nic",
          "type": "string"
        }
      ],
      "name": "createMarketSale",
      "outputs": [],
      "stateMutability": "payable",
      "type": "function"
    },
    {
      "inputs": [],
      "name": "fetchAllMarketItems",
      "outputs": [
        {
          "components": [
            {
              "internalType": "uint256",
              "name": "itemId",
              "type": "uint256"
            },
            {
              "internalType": "address",
              "name": "nftContract",
              "type": "address"
            },
            {
              "internalType": "uint256",
              "name": "tokenId",
              "type": "uint256"
            },
            {
              "components": [
                {
                  "internalType": "string",
                  "name": "name",
                  "type": "string"
                },
                {
                  "internalType": "string",
                  "name": "nic",
                  "type": "string"
                },
                {
                  "internalType": "address payable",
                  "name": "_address",
                  "type": "address"
                }
              ],
              "internalType": "struct NFTMarket.Owner[]",
              "name": "owners",
              "type": "tuple[]"
            },
            {
              "internalType": "uint256",
              "name": "price",
              "type": "uint256"
            },
            {
              "internalType": "bool",
              "name": "sold",
              "type": "bool"
            }
          ],
          "internalType": "struct NFTMarket.FullMarketItem[]",
          "name": "",
          "type": "tuple[]"
        }
      ],
      "stateMutability": "view",
      "type": "function"
    },
    {
      "inputs": [],
      "name": "fetchMyMarketItems",
      "outputs": [
        {
          "components": [
            {
              "internalType": "uint256",
              "name": "itemId",
              "type": "uint256"
            },
            {
              "internalType": "address",
              "name": "nftContract",
              "type": "address"
            },
            {
              "internalType": "uint256",
              "name": "tokenId",
              "type": "uint256"
            },
            {
              "components": [
                {
                  "internalType": "string",
                  "name": "name",
                  "type": "string"
                },
                {
                  "internalType": "string",
                  "name": "nic",
                  "type": "string"
                },
                {
                  "internalType": "address payable",
                  "name": "_address",
                  "type": "address"
                }
              ],
              "internalType": "struct NFTMarket.Owner[]",
              "name": "owners",
              "type": "tuple[]"
            },
            {
              "internalType": "uint256",
              "name": "price",
              "type": "uint256"
            },
            {
              "internalType": "bool",
              "name": "sold",
              "type": "bool"
            }
          ],
          "internalType": "struct NFTMarket.FullMarketItem[]",
          "name": "",
          "type": "tuple[]"
        }
      ],
      "stateMutability": "view",
      "type": "function"
    },
    {
      "inputs": [],
      "name": "getListingPrice",
      "outputs": [
        {
          "internalType": "uint256",
          "name": "",
          "type": "uint256"
        }
      ],
      "stateMutability": "view",
      "type": "function"
    }
  ],
  "bytecode": "0x60806040526608e1bc9bf0400060045534801561001b57600080fd5b50600160008190555033600360006101000a81548173ffffffffffffffffffffffffffffffffffffffff021916908373ffffffffffffffffffffffffffffffffffffffff16021790555061201e806100746000396000f3fe60806040526004361061004a5760003560e01c806312e855851461004f5780637d4852691461007a5780638ba8959414610096578063dd3385b7146100b2578063dfb6452b146100dd575b600080fd5b34801561005b57600080fd5b50610064610108565b6040516100719190611081565b60405180910390f35b610094600480360381019061008f9190611280565b610112565b005b6100b060048036038101906100ab9190611333565b610480565b005b3480156100be57600080fd5b506100c7610806565b6040516100d4919061170f565b60405180910390f35b3480156100e957600080fd5b506100f2610c4f565b6040516100ff919061170f565b60405180910390f35b6000600454905090565b600260005403610157576040517f08c379a000000000000000000000000000000000000000000000000000000000815260040161014e9061178e565b60405180910390fd5b6002600081905550600083116101a2576040517f08c379a0000000000000000000000000000000000000000000000000000000008152600401610199906117fa565b60405180910390fd5b60045434146101e6576040517f08c379a00000000000000000000000000000000000000000000000000000000081526004016101dd9061188c565b60405180910390fd5b6101ef85610fd3565b61022e576040517f08c379a0000000000000000000000000000000000000000000000000000000008152600401610225906118f8565b60405180910390fd5b6102386001610ff6565b6000610244600161100c565b9050600060405180606001604052808581526020018481526020013373ffffffffffffffffffffffffffffffffffffffff1681525090506006600083815260200190815260200160002081908060018154018082558091505060019003906000526020600020906003020160009091909190915060008201518160000190816102cd9190611b24565b5060208201518160010190816102e39190611b24565b5060408201518160020160006101000a81548173ffffffffffffffffffffffffffffffffffffffff021916908373ffffffffffffffffffffffffffffffffffffffff16021790555050506040518060a001604052808381526020018873ffffffffffffffffffffffffffffffffffffffff16815260200187815260200186815260200160001515815250600560008481526020019081526020016000206000820151816000015560208201518160010160006101000a81548173ffffffffffffffffffffffffffffffffffffffff021916908373ffffffffffffffffffffffffffffffffffffffff160217905550604082015181600201556060820151816003015560808201518160040160006101000a81548160ff021916908315150217905550905050858773ffffffffffffffffffffffffffffffffffffffff16837ffbfde57e09e4cd4d14bf470972cf6f151bb22ddaf0c7325d9f9075594752f70d6006600087815260200190815260200160002089600060405161046793929190611df8565b60405180910390a4505060016000819055505050505050565b6002600054036104c5576040517f08c379a00000000000000000000000000000000000000000000000000000000081526004016104bc9061178e565b60405180910390fd5b6002600081905550600060056000858152602001908152602001600020600301549050600060056000868152602001908152602001600020600201549050813414610545576040517f08c379a000000000000000000000000000000000000000000000000000000000815260040161053c90611ea8565b60405180910390fd5b600060066000878152602001908152602001600020805490509050600660008781526020019081526020016000206001826105809190611ef7565b8154811061059157610590611f2b565b5b906000526020600020906003020160020160009054906101000a900473ffffffffffffffffffffffffffffffffffffffff1673ffffffffffffffffffffffffffffffffffffffff166108fc349081150290604051600060405180830381858888f19350505050158015610608573d6000803e3d6000fd5b508673ffffffffffffffffffffffffffffffffffffffff166323b872dd600660008981526020019081526020016000206001846106459190611ef7565b8154811061065657610655611f2b565b5b906000526020600020906003020160020160009054906101000a900473ffffffffffffffffffffffffffffffffffffffff1633856040518463ffffffff1660e01b81526004016106a893929190611f69565b600060405180830381600087803b1580156106c257600080fd5b505af11580156106d6573d6000803e3d6000fd5b505050506006600087815260200190815260200160002060405180606001604052808781526020018681526020013373ffffffffffffffffffffffffffffffffffffffff168152509080600181540180825580915050600190039060005260206000209060030201600090919091909150600082015181600001908161075c9190611b24565b5060208201518160010190816107729190611b24565b5060408201518160020160006101000a81548173ffffffffffffffffffffffffffffffffffffffff021916908373ffffffffffffffffffffffffffffffffffffffff160217905550505060016005600088815260200190815260200160002060040160006101000a81548160ff0219169083151502179055506107f56002610ff6565b505050600160008190555050505050565b60606000610814600161100c565b90506000808267ffffffffffffffff81111561083357610832611155565b5b60405190808252806020026020018201604052801561086c57816020015b61085961101a565b8152602001906001900390816108515790505b5090506000600190505b838111610c4257600060066000838152602001908152602001600020600160066000858152602001908152602001600020805490506108b59190611ef7565b815481106108c6576108c5611f2b565b5b906000526020600020906003020160020160009054906101000a900473ffffffffffffffffffffffffffffffffffffffff1690503373ffffffffffffffffffffffffffffffffffffffff168173ffffffffffffffffffffffffffffffffffffffff1603610c2e5760006040518060c00160405280600560008681526020019081526020016000206000015481526020016005600086815260200190815260200160002060010160009054906101000a900473ffffffffffffffffffffffffffffffffffffffff1673ffffffffffffffffffffffffffffffffffffffff1681526020016005600086815260200190815260200160002060020154815260200160066000868152602001908152602001600020805480602002602001604051908101604052809291908181526020016000905b82821015610ba35783829060005260206000209060030201604051806060016040529081600082018054610a2a90611947565b80601f0160208091040260200160405190810160405280929190818152602001828054610a5690611947565b8015610aa35780601f10610a7857610100808354040283529160200191610aa3565b820191906000526020600020905b815481529060010190602001808311610a8657829003601f168201915b50505050508152602001600182018054610abc90611947565b80601f0160208091040260200160405190810160405280929190818152602001828054610ae890611947565b8015610b355780601f10610b0a57610100808354040283529160200191610b35565b820191906000526020600020905b815481529060010190602001808311610b1857829003601f168201915b505050505081526020016002820160009054906101000a900473ffffffffffffffffffffffffffffffffffffffff1673ffffffffffffffffffffffffffffffffffffffff1673ffffffffffffffffffffffffffffffffffffffff1681525050815260200190600101906109f7565b505050508152602001600560008681526020019081526020016000206003015481526020016005600086815260200190815260200160002060040160009054906101000a900460ff16151581525090508084600185610c029190611ef7565b81518110610c1357610c12611f2b565b5b60200260200101819052508480610c2990611fa0565b955050505b508080610c3a90611fa0565b915050610876565b5081815280935050505090565b60606000610c5d600161100c565b905060008167ffffffffffffffff811115610c7b57610c7a611155565b5b604051908082528060200260200182016040528015610cb457816020015b610ca161101a565b815260200190600190039081610c995790505b5090506000600190505b828111610fca5760006040518060c00160405280600560008581526020019081526020016000206000015481526020016005600085815260200190815260200160002060010160009054906101000a900473ffffffffffffffffffffffffffffffffffffffff1673ffffffffffffffffffffffffffffffffffffffff1681526020016005600085815260200190815260200160002060020154815260200160066000858152602001908152602001600020805480602002602001604051908101604052809291908181526020016000905b82821015610f3b5783829060005260206000209060030201604051806060016040529081600082018054610dc290611947565b80601f0160208091040260200160405190810160405280929190818152602001828054610dee90611947565b8015610e3b5780601f10610e1057610100808354040283529160200191610e3b565b820191906000526020600020905b815481529060010190602001808311610e1e57829003601f168201915b50505050508152602001600182018054610e5490611947565b80601f0160208091040260200160405190810160405280929190818152602001828054610e8090611947565b8015610ecd5780601f10610ea257610100808354040283529160200191610ecd565b820191906000526020600020905b815481529060010190602001808311610eb057829003601f168201915b505050505081526020016002820160009054906101000a900473ffffffffffffffffffffffffffffffffffffffff1673ffffffffffffffffffffffffffffffffffffffff1673ffffffffffffffffffffffffffffffffffffffff168152505081526020019060010190610d8f565b505050508152602001600560008581526020019081526020016000206003015481526020016005600085815260200190815260200160002060040160009054906101000a900460ff16151581525090508083600184610f9a9190611ef7565b81518110610fab57610faa611f2b565b5b6020026020010181905250508080610fc290611fa0565b915050610cbe565b50809250505090565b6000808273ffffffffffffffffffffffffffffffffffffffff163b119050919050565b6001816000016000828254019250508190555050565b600081600001549050919050565b6040518060c0016040528060008152602001600073ffffffffffffffffffffffffffffffffffffffff1681526020016000815260200160608152602001600081526020016000151581525090565b6000819050919050565b61107b81611068565b82525050565b60006020820190506110966000830184611072565b92915050565b6000604051905090565b600080fd5b600080fd5b600073ffffffffffffffffffffffffffffffffffffffff82169050919050565b60006110db826110b0565b9050919050565b6110eb816110d0565b81146110f657600080fd5b50565b600081359050611108816110e2565b92915050565b61111781611068565b811461112257600080fd5b50565b6000813590506111348161110e565b92915050565b600080fd5b600080fd5b6000601f19601f8301169050919050565b7f4e487b7100000000000000000000000000000000000000000000000000000000600052604160045260246000fd5b61118d82611144565b810181811067ffffffffffffffff821117156111ac576111ab611155565b5b80604052505050565b60006111bf61109c565b90506111cb8282611184565b919050565b600067ffffffffffffffff8211156111eb576111ea611155565b5b6111f482611144565b9050602081019050919050565b82818337600083830152505050565b600061122361121e846111d0565b6111b5565b90508281526020810184848401111561123f5761123e61113f565b5b61124a848285611201565b509392505050565b600082601f8301126112675761126661113a565b5b8135611277848260208601611210565b91505092915050565b600080600080600060a0868803121561129c5761129b6110a6565b5b60006112aa888289016110f9565b95505060206112bb88828901611125565b94505060406112cc88828901611125565b935050606086013567ffffffffffffffff8111156112ed576112ec6110ab565b5b6112f988828901611252565b925050608086013567ffffffffffffffff81111561131a576113196110ab565b5b61132688828901611252565b9150509295509295909350565b6000806000806080858703121561134d5761134c6110a6565b5b600061135b878288016110f9565b945050602061136c87828801611125565b935050604085013567ffffffffffffffff81111561138d5761138c6110ab565b5b61139987828801611252565b925050606085013567ffffffffffffffff8111156113ba576113b96110ab565b5b6113c687828801611252565b91505092959194509250565b600081519050919050565b600082825260208201905092915050565b6000819050602082019050919050565b61140781611068565b82525050565b611416816110d0565b82525050565b600081519050919050565b600082825260208201905092915050565b6000819050602082019050919050565b600081519050919050565b600082825260208201905092915050565b60005b83811015611482578082015181840152602081019050611467565b60008484015250505050565b600061149982611448565b6114a38185611453565b93506114b3818560208601611464565b6114bc81611144565b840191505092915050565b60006114d2826110b0565b9050919050565b6114e2816114c7565b82525050565b60006060830160008301518482036000860152611505828261148e565b9150506020830151848203602086015261151f828261148e565b915050604083015161153460408601826114d9565b508091505092915050565b600061154b83836114e8565b905092915050565b6000602082019050919050565b600061156b8261141c565b6115758185611427565b93508360208202850161158785611438565b8060005b858110156115c357848403895281516115a4858261153f565b94506115af83611553565b925060208a0199505060018101905061158b565b50829750879550505050505092915050565b60008115159050919050565b6115ea816115d5565b82525050565b600060c08301600083015161160860008601826113fe565b50602083015161161b602086018261140d565b50604083015161162e60408601826113fe565b50606083015184820360608601526116468282611560565b915050608083015161165b60808601826113fe565b5060a083015161166e60a08601826115e1565b508091505092915050565b600061168583836115f0565b905092915050565b6000602082019050919050565b60006116a5826113d2565b6116af81856113dd565b9350836020820285016116c1856113ee565b8060005b858110156116fd57848403895281516116de8582611679565b94506116e98361168d565b925060208a019950506001810190506116c5565b50829750879550505050505092915050565b60006020820190508181036000830152611729818461169a565b905092915050565b600082825260208201905092915050565b7f5265656e7472616e637947756172643a207265656e7472616e742063616c6c00600082015250565b6000611778601f83611731565b915061178382611742565b602082019050919050565b600060208201905081810360008301526117a78161176b565b9050919050565b7f5072696365206d757374206265206174206c6561737420312077656900000000600082015250565b60006117e4601c83611731565b91506117ef826117ae565b602082019050919050565b60006020820190508181036000830152611813816117d7565b9050919050565b7f5061796d656e74206d75737420626520657175616c20746f206c697374696e6760008201527f2070726963650000000000000000000000000000000000000000000000000000602082015250565b6000611876602683611731565b91506118818261181a565b604082019050919050565b600060208201905081810360008301526118a581611869565b9050919050565b7f496e76616c6964204e465420636f6e7472616374206164647265737300000000600082015250565b60006118e2601c83611731565b91506118ed826118ac565b602082019050919050565b60006020820190508181036000830152611911816118d5565b9050919050565b7f4e487b7100000000000000000000000000000000000000000000000000000000600052602260045260246000fd5b6000600282049050600182168061195f57607f821691505b60208210810361197257611971611918565b5b50919050565b60008190508160005260206000209050919050565b60006020601f8301049050919050565b600082821b905092915050565b6000600883026119da7fffffffffffffffffffffffffffffffffffffffffffffffffffffffffffffffff8261199d565b6119e4868361199d565b95508019841693508086168417925050509392505050565b6000819050919050565b6000611a21611a1c611a1784611068565b6119fc565b611068565b9050919050565b6000819050919050565b611a3b83611a06565b611a4f611a4782611a28565b8484546119aa565b825550505050565b600090565b611a64611a57565b611a6f818484611a32565b505050565b5b81811015611a9357611a88600082611a5c565b600181019050611a75565b5050565b601f821115611ad857611aa981611978565b611ab28461198d565b81016020851015611ac1578190505b611ad5611acd8561198d565b830182611a74565b50505b505050565b600082821c905092915050565b6000611afb60001984600802611add565b1980831691505092915050565b6000611b148383611aea565b9150826002028217905092915050565b611b2d82611448565b67ffffffffffffffff811115611b4657611b45611155565b5b611b508254611947565b611b5b828285611a97565b600060209050601f831160018114611b8e5760008415611b7c578287015190505b611b868582611b08565b865550611bee565b601f198416611b9c86611978565b60005b82811015611bc457848901518255600182019150602085019450602081019050611b9f565b86831015611be15784890151611bdd601f891682611aea565b8355505b6001600288020188555050505b505050505050565b600081549050919050565b600082825260208201905092915050565b60008190508160005260206000209050919050565b60008154611c3481611947565b611c3e8186611453565b94506001821660008114611c595760018114611c6f57611ca2565b60ff198316865281151560200286019350611ca2565b611c7885611978565b60005b83811015611c9a57815481890152600182019150602081019050611c7b565b808801955050505b50505092915050565b60008160001c9050919050565b600073ffffffffffffffffffffffffffffffffffffffff82169050919050565b6000611ceb611ce683611cab565b611cb8565b9050919050565b60006060830160008084018583036000870152611d0f8382611c27565b925050600184018583036020870152611d288382611c27565b92505060028401549050611d3b81611cd8565b611d4860408701826114d9565b50819250505092915050565b6000611d608383611cf2565b905092915050565b6000600382019050919050565b6000611d8082611bf6565b611d8a8185611c01565b935083602082028501611d9c85611c12565b8060005b85811015611dd757848403895281611db88582611d54565b9450611dc383611d68565b925060208a01995050600181019050611da0565b50829750879550505050505092915050565b611df2816115d5565b82525050565b60006060820190508181036000830152611e128186611d75565b9050611e216020830185611072565b611e2e6040830184611de9565b949350505050565b7f506c65617365207375626d6974207468652061736b696e67207072696365206960008201527f6e206f7264657220746f20636f6d706c65746520746865207075726368617365602082015250565b6000611e92604083611731565b9150611e9d82611e36565b604082019050919050565b60006020820190508181036000830152611ec181611e85565b9050919050565b7f4e487b7100000000000000000000000000000000000000000000000000000000600052601160045260246000fd5b6000611f0282611068565b9150611f0d83611068565b9250828203905081811115611f2557611f24611ec8565b5b92915050565b7f4e487b7100000000000000000000000000000000000000000000000000000000600052603260045260246000fd5b611f63816110d0565b82525050565b6000606082019050611f7e6000830186611f5a565b611f8b6020830185611f5a565b611f986040830184611072565b949350505050565b6000611fab82611068565b91507fffffffffffffffffffffffffffffffffffffffffffffffffffffffffffffffff8203611fdd57611fdc611ec8565b5b60018201905091905056fea2646970667358221220d51fd888218ebd53f76e6370b747db5df072773b1286092277ee121b1e401d1764736f6c63430008130033",
  "linkReferences": {},
  "deployedLinkReferences": {}
}