{
  "_format": "hh-sol-artifact-1",
  "contractName": "NFTMarket",
  "sourceName": "contracts/NFTMarket.sol",
  "abi": [
    {
      "inputs": [],
      "stateMutability": "nonpayable",
      "type": "constructor"
    },
    {
      "anonymous": false,
      "inputs": [
        {
          "indexed": true,
          "internalType": "uint256",
          "name": "itemId",
          "type": "uint256"
        },
        {
          "indexed": true,
          "internalType": "address",
          "name": "nftContract",
          "type": "address"
        },
        {
          "indexed": true,
          "internalType": "uint256",
          "name": "tokenId",
          "type": "uint256"
        },
        {
          "components": [
            {
              "internalType": "string",
              "name": "name",
              "type": "string"
            },
            {
              "internalType": "string",
              "name": "nic",
              "type": "string"
            },
            {
              "internalType": "address payable",
              "name": "_address",
              "type": "address"
            }
          ],
          "indexed": false,
          "internalType": "struct NFTMarket.Owner[]",
          "name": "owners",
          "type": "tuple[]"
        },
        {
          "indexed": false,
          "internalType": "uint256",
          "name": "price",
          "type": "uint256"
        },
        {
          "indexed": false,
          "internalType": "bool",
          "name": "sold",
          "type": "bool"
        }
      ],
      "name": "MarketItemCreated",
      "type": "event"
    },
    {
      "inputs": [
        {
          "internalType": "address",
          "name": "nftContract",
          "type": "address"
        },
        {
          "internalType": "uint256",
          "name": "itemId",
          "type": "uint256"
        },
        {
          "internalType": "uint256",
          "name": "new_price",
          "type": "uint256"
        }
      ],
      "name": "changeMarketItemPrice",
      "outputs": [],
      "stateMutability": "nonpayable",
      "type": "function"
    },
    {
      "inputs": [
        {
          "internalType": "address",
          "name": "nftContract",
          "type": "address"
        },
        {
          "internalType": "uint256",
          "name": "tokenId",
          "type": "uint256"
        },
        {
          "internalType": "uint256",
          "name": "price",
          "type": "uint256"
        },
        {
          "internalType": "string",
          "name": "name",
          "type": "string"
        },
        {
          "internalType": "string",
          "name": "nic",
          "type": "string"
        },
        {
          "internalType": "address",
          "name": "owner_address",
          "type": "address"
        }
      ],
      "name": "createMarketItem",
      "outputs": [],
      "stateMutability": "payable",
      "type": "function"
    },
    {
      "inputs": [
        {
          "internalType": "address",
          "name": "nftContract",
          "type": "address"
        },
        {
          "internalType": "uint256",
          "name": "itemId",
          "type": "uint256"
        },
        {
          "internalType": "string",
          "name": "new_owner_name",
          "type": "string"
        },
        {
          "internalType": "string",
          "name": "new_owner_nic",
          "type": "string"
        }
      ],
      "name": "createMarketSale",
      "outputs": [],
      "stateMutability": "payable",
      "type": "function"
    },
    {
      "inputs": [],
      "name": "fetchAllMarketItems",
      "outputs": [
        {
          "components": [
            {
              "internalType": "uint256",
              "name": "itemId",
              "type": "uint256"
            },
            {
              "internalType": "address",
              "name": "nftContract",
              "type": "address"
            },
            {
              "internalType": "uint256",
              "name": "tokenId",
              "type": "uint256"
            },
            {
              "components": [
                {
                  "internalType": "string",
                  "name": "name",
                  "type": "string"
                },
                {
                  "internalType": "string",
                  "name": "nic",
                  "type": "string"
                },
                {
                  "internalType": "address payable",
                  "name": "_address",
                  "type": "address"
                }
              ],
              "internalType": "struct NFTMarket.Owner[]",
              "name": "owners",
              "type": "tuple[]"
            },
            {
              "internalType": "uint256",
              "name": "price",
              "type": "uint256"
            },
            {
              "internalType": "bool",
              "name": "sold",
              "type": "bool"
            }
          ],
          "internalType": "struct NFTMarket.FullMarketItem[]",
          "name": "",
          "type": "tuple[]"
        }
      ],
      "stateMutability": "view",
      "type": "function"
    },
    {
      "inputs": [],
      "name": "fetchMyMarketItems",
      "outputs": [
        {
          "components": [
            {
              "internalType": "uint256",
              "name": "itemId",
              "type": "uint256"
            },
            {
              "internalType": "address",
              "name": "nftContract",
              "type": "address"
            },
            {
              "internalType": "uint256",
              "name": "tokenId",
              "type": "uint256"
            },
            {
              "components": [
                {
                  "internalType": "string",
                  "name": "name",
                  "type": "string"
                },
                {
                  "internalType": "string",
                  "name": "nic",
                  "type": "string"
                },
                {
                  "internalType": "address payable",
                  "name": "_address",
                  "type": "address"
                }
              ],
              "internalType": "struct NFTMarket.Owner[]",
              "name": "owners",
              "type": "tuple[]"
            },
            {
              "internalType": "uint256",
              "name": "price",
              "type": "uint256"
            },
            {
              "internalType": "bool",
              "name": "sold",
              "type": "bool"
            }
          ],
          "internalType": "struct NFTMarket.FullMarketItem[]",
          "name": "",
          "type": "tuple[]"
        }
      ],
      "stateMutability": "view",
      "type": "function"
    },
    {
      "inputs": [],
      "name": "getListingPrice",
      "outputs": [
        {
          "internalType": "uint256",
          "name": "",
          "type": "uint256"
        }
      ],
      "stateMutability": "view",
      "type": "function"
    }
  ],
  "bytecode": "0x60806040526608e1bc9bf0400060045534801561001b57600080fd5b50600160008190555033600360006101000a81548173ffffffffffffffffffffffffffffffffffffffff021916908373ffffffffffffffffffffffffffffffffffffffff16021790555061230b806100746000396000f3fe6080604052600436106100555760003560e01c80631113186e1461005a57806312e85585146100765780638ba89594146100a15780639702f327146100bd578063dd3385b7146100e6578063dfb6452b14610111575b600080fd5b610074600480360381019061006f919061144c565b61013c565b005b34801561008257600080fd5b5061008b61051e565b6040516100989190611520565b60405180910390f35b6100bb60048036038101906100b6919061153b565b610528565b005b3480156100c957600080fd5b506100e460048036038101906100df91906115da565b6108ae565b005b3480156100f257600080fd5b506100fb6109fc565b604051610108919061196a565b60405180910390f35b34801561011d57600080fd5b50610126610e45565b604051610133919061196a565b60405180910390f35b600260005403610181576040517f08c379a0000000000000000000000000000000000000000000000000000000008152600401610178906119e9565b60405180910390fd5b6002600081905550600084116101cc576040517f08c379a00000000000000000000000000000000000000000000000000000000081526004016101c390611a55565b60405180910390fd5b6004543414610210576040517f08c379a000000000000000000000000000000000000000000000000000000000815260040161020790611ae7565b60405180910390fd5b610219866111c9565b610258576040517f08c379a000000000000000000000000000000000000000000000000000000000815260040161024f90611b53565b60405180910390fd5b61026260016111ec565b600061026e6001611202565b9050600060405180606001604052808681526020018581526020018473ffffffffffffffffffffffffffffffffffffffff1681525090506006600083815260200190815260200160002081908060018154018082558091505060019003906000526020600020906003020160009091909190915060008201518160000190816102f79190611d7f565b50602082015181600101908161030d9190611d7f565b5060408201518160020160006101000a81548173ffffffffffffffffffffffffffffffffffffffff021916908373ffffffffffffffffffffffffffffffffffffffff16021790555050506040518060a001604052808381526020018973ffffffffffffffffffffffffffffffffffffffff16815260200188815260200187815260200160001515815250600560008481526020019081526020016000206000820151816000015560208201518160010160006101000a81548173ffffffffffffffffffffffffffffffffffffffff021916908373ffffffffffffffffffffffffffffffffffffffff160217905550604082015181600201556060820151816003015560808201518160040160006101000a81548160ff0219169083151502179055509050508773ffffffffffffffffffffffffffffffffffffffff166323b872dd3383604001518a6040518463ffffffff1660e01b815260040161047393929190611e60565b600060405180830381600087803b15801561048d57600080fd5b505af11580156104a1573d6000803e3d6000fd5b50505050868873ffffffffffffffffffffffffffffffffffffffff16837ffbfde57e09e4cd4d14bf470972cf6f151bb22ddaf0c7325d9f9075594752f70d600660008781526020019081526020016000208a600060405161050493929190612099565b60405180910390a450506001600081905550505050505050565b6000600454905090565b60026000540361056d576040517f08c379a0000000000000000000000000000000000000000000000000000000008152600401610564906119e9565b60405180910390fd5b60026000819055506000600560008581526020019081526020016000206003015490506000600560008681526020019081526020016000206002015490508134146105ed576040517f08c379a00000000000000000000000000000000000000000000000000000000081526004016105e490612149565b60405180910390fd5b600060066000878152602001908152602001600020805490509050600660008781526020019081526020016000206001826106289190612198565b81548110610639576106386121cc565b5b906000526020600020906003020160020160009054906101000a900473ffffffffffffffffffffffffffffffffffffffff1673ffffffffffffffffffffffffffffffffffffffff166108fc349081150290604051600060405180830381858888f193505050501580156106b0573d6000803e3d6000fd5b508673ffffffffffffffffffffffffffffffffffffffff166323b872dd600660008981526020019081526020016000206001846106ed9190612198565b815481106106fe576106fd6121cc565b5b906000526020600020906003020160020160009054906101000a900473ffffffffffffffffffffffffffffffffffffffff1633856040518463ffffffff1660e01b815260040161075093929190611e60565b600060405180830381600087803b15801561076a57600080fd5b505af115801561077e573d6000803e3d6000fd5b505050506006600087815260200190815260200160002060405180606001604052808781526020018681526020013373ffffffffffffffffffffffffffffffffffffffff16815250908060018154018082558091505060019003906000526020600020906003020160009091909190915060008201518160000190816108049190611d7f565b50602082015181600101908161081a9190611d7f565b5060408201518160020160006101000a81548173ffffffffffffffffffffffffffffffffffffffff021916908373ffffffffffffffffffffffffffffffffffffffff160217905550505060016005600088815260200190815260200160002060040160006101000a81548160ff02191690831515021790555061089d60026111ec565b505050600160008190555050505050565b6108b7836111c9565b6108f6576040517f08c379a00000000000000000000000000000000000000000000000000000000081526004016108ed90611b53565b60405180910390fd5b600660008381526020019081526020016000206001600660008581526020019081526020016000208054905061092c9190612198565b8154811061093d5761093c6121cc565b5b906000526020600020906003020160020160009054906101000a900473ffffffffffffffffffffffffffffffffffffffff1673ffffffffffffffffffffffffffffffffffffffff163373ffffffffffffffffffffffffffffffffffffffff16146109dc576040517f08c379a00000000000000000000000000000000000000000000000000000000081526004016109d39061226d565b60405180910390fd5b806005600084815260200190815260200160002060030181905550505050565b60606000610a0a6001611202565b90506000808267ffffffffffffffff811115610a2957610a28611321565b5b604051908082528060200260200182016040528015610a6257816020015b610a4f611210565b815260200190600190039081610a475790505b5090506000600190505b838111610e385760006006600083815260200190815260200160002060016006600085815260200190815260200160002080549050610aab9190612198565b81548110610abc57610abb6121cc565b5b906000526020600020906003020160020160009054906101000a900473ffffffffffffffffffffffffffffffffffffffff1690503373ffffffffffffffffffffffffffffffffffffffff168173ffffffffffffffffffffffffffffffffffffffff1603610e245760006040518060c00160405280600560008681526020019081526020016000206000015481526020016005600086815260200190815260200160002060010160009054906101000a900473ffffffffffffffffffffffffffffffffffffffff1673ffffffffffffffffffffffffffffffffffffffff1681526020016005600086815260200190815260200160002060020154815260200160066000868152602001908152602001600020805480602002602001604051908101604052809291908181526020016000905b82821015610d995783829060005260206000209060030201604051806060016040529081600082018054610c2090611ba2565b80601f0160208091040260200160405190810160405280929190818152602001828054610c4c90611ba2565b8015610c995780601f10610c6e57610100808354040283529160200191610c99565b820191906000526020600020905b815481529060010190602001808311610c7c57829003601f168201915b50505050508152602001600182018054610cb290611ba2565b80601f0160208091040260200160405190810160405280929190818152602001828054610cde90611ba2565b8015610d2b5780601f10610d0057610100808354040283529160200191610d2b565b820191906000526020600020905b815481529060010190602001808311610d0e57829003601f168201915b505050505081526020016002820160009054906101000a900473ffffffffffffffffffffffffffffffffffffffff1673ffffffffffffffffffffffffffffffffffffffff1673ffffffffffffffffffffffffffffffffffffffff168152505081526020019060010190610bed565b505050508152602001600560008681526020019081526020016000206003015481526020016005600086815260200190815260200160002060040160009054906101000a900460ff16151581525090508084600185610df89190612198565b81518110610e0957610e086121cc565b5b60200260200101819052508480610e1f9061228d565b955050505b508080610e309061228d565b915050610a6c565b5081815280935050505090565b60606000610e536001611202565b905060008167ffffffffffffffff811115610e7157610e70611321565b5b604051908082528060200260200182016040528015610eaa57816020015b610e97611210565b815260200190600190039081610e8f5790505b5090506000600190505b8281116111c05760006040518060c00160405280600560008581526020019081526020016000206000015481526020016005600085815260200190815260200160002060010160009054906101000a900473ffffffffffffffffffffffffffffffffffffffff1673ffffffffffffffffffffffffffffffffffffffff1681526020016005600085815260200190815260200160002060020154815260200160066000858152602001908152602001600020805480602002602001604051908101604052809291908181526020016000905b828210156111315783829060005260206000209060030201604051806060016040529081600082018054610fb890611ba2565b80601f0160208091040260200160405190810160405280929190818152602001828054610fe490611ba2565b80156110315780601f1061100657610100808354040283529160200191611031565b820191906000526020600020905b81548152906001019060200180831161101457829003601f168201915b5050505050815260200160018201805461104a90611ba2565b80601f016020809104026020016040519081016040528092919081815260200182805461107690611ba2565b80156110c35780601f10611098576101008083540402835291602001916110c3565b820191906000526020600020905b8154815290600101906020018083116110a657829003601f168201915b505050505081526020016002820160009054906101000a900473ffffffffffffffffffffffffffffffffffffffff1673ffffffffffffffffffffffffffffffffffffffff1673ffffffffffffffffffffffffffffffffffffffff168152505081526020019060010190610f85565b505050508152602001600560008581526020019081526020016000206003015481526020016005600085815260200190815260200160002060040160009054906101000a900460ff161515815250905080836001846111909190612198565b815181106111a1576111a06121cc565b5b60200260200101819052505080806111b89061228d565b915050610eb4565b50809250505090565b6000808273ffffffffffffffffffffffffffffffffffffffff163b119050919050565b6001816000016000828254019250508190555050565b600081600001549050919050565b6040518060c0016040528060008152602001600073ffffffffffffffffffffffffffffffffffffffff1681526020016000815260200160608152602001600081526020016000151581525090565b6000604051905090565b600080fd5b600080fd5b600073ffffffffffffffffffffffffffffffffffffffff82169050919050565b600061129d82611272565b9050919050565b6112ad81611292565b81146112b857600080fd5b50565b6000813590506112ca816112a4565b92915050565b6000819050919050565b6112e3816112d0565b81146112ee57600080fd5b50565b600081359050611300816112da565b92915050565b600080fd5b600080fd5b6000601f19601f8301169050919050565b7f4e487b7100000000000000000000000000000000000000000000000000000000600052604160045260246000fd5b61135982611310565b810181811067ffffffffffffffff8211171561137857611377611321565b5b80604052505050565b600061138b61125e565b90506113978282611350565b919050565b600067ffffffffffffffff8211156113b7576113b6611321565b5b6113c082611310565b9050602081019050919050565b82818337600083830152505050565b60006113ef6113ea8461139c565b611381565b90508281526020810184848401111561140b5761140a61130b565b5b6114168482856113cd565b509392505050565b600082601f83011261143357611432611306565b5b81356114438482602086016113dc565b91505092915050565b60008060008060008060c0878903121561146957611468611268565b5b600061147789828a016112bb565b965050602061148889828a016112f1565b955050604061149989828a016112f1565b945050606087013567ffffffffffffffff8111156114ba576114b961126d565b5b6114c689828a0161141e565b935050608087013567ffffffffffffffff8111156114e7576114e661126d565b5b6114f389828a0161141e565b92505060a061150489828a016112bb565b9150509295509295509295565b61151a816112d0565b82525050565b60006020820190506115356000830184611511565b92915050565b6000806000806080858703121561155557611554611268565b5b6000611563878288016112bb565b9450506020611574878288016112f1565b935050604085013567ffffffffffffffff8111156115955761159461126d565b5b6115a18782880161141e565b925050606085013567ffffffffffffffff8111156115c2576115c161126d565b5b6115ce8782880161141e565b91505092959194509250565b6000806000606084860312156115f3576115f2611268565b5b6000611601868287016112bb565b9350506020611612868287016112f1565b9250506040611623868287016112f1565b9150509250925092565b600081519050919050565b600082825260208201905092915050565b6000819050602082019050919050565b611662816112d0565b82525050565b61167181611292565b82525050565b600081519050919050565b600082825260208201905092915050565b6000819050602082019050919050565b600081519050919050565b600082825260208201905092915050565b60005b838110156116dd5780820151818401526020810190506116c2565b60008484015250505050565b60006116f4826116a3565b6116fe81856116ae565b935061170e8185602086016116bf565b61171781611310565b840191505092915050565b600061172d82611272565b9050919050565b61173d81611722565b82525050565b6000606083016000830151848203600086015261176082826116e9565b9150506020830151848203602086015261177a82826116e9565b915050604083015161178f6040860182611734565b508091505092915050565b60006117a68383611743565b905092915050565b6000602082019050919050565b60006117c682611677565b6117d08185611682565b9350836020820285016117e285611693565b8060005b8581101561181e57848403895281516117ff858261179a565b945061180a836117ae565b925060208a019950506001810190506117e6565b50829750879550505050505092915050565b60008115159050919050565b61184581611830565b82525050565b600060c0830160008301516118636000860182611659565b5060208301516118766020860182611668565b5060408301516118896040860182611659565b50606083015184820360608601526118a182826117bb565b91505060808301516118b66080860182611659565b5060a08301516118c960a086018261183c565b508091505092915050565b60006118e0838361184b565b905092915050565b6000602082019050919050565b60006119008261162d565b61190a8185611638565b93508360208202850161191c85611649565b8060005b85811015611958578484038952815161193985826118d4565b9450611944836118e8565b925060208a01995050600181019050611920565b50829750879550505050505092915050565b6000602082019050818103600083015261198481846118f5565b905092915050565b600082825260208201905092915050565b7f5265656e7472616e637947756172643a207265656e7472616e742063616c6c00600082015250565b60006119d3601f8361198c565b91506119de8261199d565b602082019050919050565b60006020820190508181036000830152611a02816119c6565b9050919050565b7f5072696365206d757374206265206174206c6561737420312077656900000000600082015250565b6000611a3f601c8361198c565b9150611a4a82611a09565b602082019050919050565b60006020820190508181036000830152611a6e81611a32565b9050919050565b7f5061796d656e74206d75737420626520657175616c20746f206c697374696e6760008201527f2070726963650000000000000000000000000000000000000000000000000000602082015250565b6000611ad160268361198c565b9150611adc82611a75565b604082019050919050565b60006020820190508181036000830152611b0081611ac4565b9050919050565b7f496e76616c6964204e465420636f6e7472616374206164647265737300000000600082015250565b6000611b3d601c8361198c565b9150611b4882611b07565b602082019050919050565b60006020820190508181036000830152611b6c81611b30565b9050919050565b7f4e487b7100000000000000000000000000000000000000000000000000000000600052602260045260246000fd5b60006002820490506001821680611bba57607f821691505b602082108103611bcd57611bcc611b73565b5b50919050565b60008190508160005260206000209050919050565b60006020601f8301049050919050565b600082821b905092915050565b600060088302611c357fffffffffffffffffffffffffffffffffffffffffffffffffffffffffffffffff82611bf8565b611c3f8683611bf8565b95508019841693508086168417925050509392505050565b6000819050919050565b6000611c7c611c77611c72846112d0565b611c57565b6112d0565b9050919050565b6000819050919050565b611c9683611c61565b611caa611ca282611c83565b848454611c05565b825550505050565b600090565b611cbf611cb2565b611cca818484611c8d565b505050565b5b81811015611cee57611ce3600082611cb7565b600181019050611cd0565b5050565b601f821115611d3357611d0481611bd3565b611d0d84611be8565b81016020851015611d1c578190505b611d30611d2885611be8565b830182611ccf565b50505b505050565b600082821c905092915050565b6000611d5660001984600802611d38565b1980831691505092915050565b6000611d6f8383611d45565b9150826002028217905092915050565b611d88826116a3565b67ffffffffffffffff811115611da157611da0611321565b5b611dab8254611ba2565b611db6828285611cf2565b600060209050601f831160018114611de95760008415611dd7578287015190505b611de18582611d63565b865550611e49565b601f198416611df786611bd3565b60005b82811015611e1f57848901518255600182019150602085019450602081019050611dfa565b86831015611e3c5784890151611e38601f891682611d45565b8355505b6001600288020188555050505b505050505050565b611e5a81611292565b82525050565b6000606082019050611e756000830186611e51565b611e826020830185611e51565b611e8f6040830184611511565b949350505050565b600081549050919050565b600082825260208201905092915050565b60008190508160005260206000209050919050565b60008154611ed581611ba2565b611edf81866116ae565b94506001821660008114611efa5760018114611f1057611f43565b60ff198316865281151560200286019350611f43565b611f1985611bd3565b60005b83811015611f3b57815481890152600182019150602081019050611f1c565b808801955050505b50505092915050565b60008160001c9050919050565b600073ffffffffffffffffffffffffffffffffffffffff82169050919050565b6000611f8c611f8783611f4c565b611f59565b9050919050565b60006060830160008084018583036000870152611fb08382611ec8565b925050600184018583036020870152611fc98382611ec8565b92505060028401549050611fdc81611f79565b611fe96040870182611734565b50819250505092915050565b60006120018383611f93565b905092915050565b6000600382019050919050565b600061202182611e97565b61202b8185611ea2565b93508360208202850161203d85611eb3565b8060005b85811015612078578484038952816120598582611ff5565b945061206483612009565b925060208a01995050600181019050612041565b50829750879550505050505092915050565b61209381611830565b82525050565b600060608201905081810360008301526120b38186612016565b90506120c26020830185611511565b6120cf604083018461208a565b949350505050565b7f506c65617365207375626d6974207468652061736b696e67207072696365206960008201527f6e206f7264657220746f20636f6d706c65746520746865207075726368617365602082015250565b600061213360408361198c565b915061213e826120d7565b604082019050919050565b6000602082019050818103600083015261216281612126565b9050919050565b7f4e487b7100000000000000000000000000000000000000000000000000000000600052601160045260246000fd5b60006121a3826112d0565b91506121ae836112d0565b92508282039050818111156121c6576121c5612169565b5b92915050565b7f4e487b7100000000000000000000000000000000000000000000000000000000600052603260045260246000fd5b7f596f7520617265206e6f7420746865206f776e6572206f662074686973204e4660008201527f5400000000000000000000000000000000000000000000000000000000000000602082015250565b600061225760218361198c565b9150612262826121fb565b604082019050919050565b600060208201905081810360008301526122868161224a565b9050919050565b6000612298826112d0565b91507fffffffffffffffffffffffffffffffffffffffffffffffffffffffffffffffff82036122ca576122c9612169565b5b60018201905091905056fea2646970667358221220951de532e2bb8b68418147674dcb1bed5b50187817df20de3862513671d1b98864736f6c63430008130033",
  "linkReferences": {},
  "deployedLinkReferences": {}
}