{
  "_format": "hh-sol-artifact-1",
  "contractName": "NFT",
  "sourceName": "contracts/NFT.sol",
  "abi": [
    {
      "inputs": [
        {
          "internalType": "address",
          "name": "marketplaceAddress",
          "type": "address"
        }
      ],
      "stateMutability": "nonpayable",
      "type": "constructor"
    },
    {
      "anonymous": false,
      "inputs": [
        {
          "indexed": true,
          "internalType": "address",
          "name": "owner",
          "type": "address"
        },
        {
          "indexed": true,
          "internalType": "address",
          "name": "approved",
          "type": "address"
        },
        {
          "indexed": true,
          "internalType": "uint256",
          "name": "tokenId",
          "type": "uint256"
        }
      ],
      "name": "Approval",
      "type": "event"
    },
    {
      "anonymous": false,
      "inputs": [
        {
          "indexed": true,
          "internalType": "address",
          "name": "owner",
          "type": "address"
        },
        {
          "indexed": true,
          "internalType": "address",
          "name": "operator",
          "type": "address"
        },
        {
          "indexed": false,
          "internalType": "bool",
          "name": "approved",
          "type": "bool"
        }
      ],
      "name": "ApprovalForAll",
      "type": "event"
    },
    {
      "anonymous": false,
      "inputs": [
        {
          "indexed": true,
          "internalType": "address",
          "name": "from",
          "type": "address"
        },
        {
          "indexed": true,
          "internalType": "address",
          "name": "to",
          "type": "address"
        },
        {
          "indexed": true,
          "internalType": "uint256",
          "name": "tokenId",
          "type": "uint256"
        }
      ],
      "name": "Transfer",
      "type": "event"
    },
    {
      "inputs": [
        {
          "internalType": "address",
          "name": "to",
          "type": "address"
        },
        {
          "internalType": "uint256",
          "name": "tokenId",
          "type": "uint256"
        }
      ],
      "name": "approve",
      "outputs": [],
      "stateMutability": "nonpayable",
      "type": "function"
    },
    {
      "inputs": [
        {
          "internalType": "address",
          "name": "owner",
          "type": "address"
        }
      ],
      "name": "balanceOf",
      "outputs": [
        {
          "internalType": "uint256",
          "name": "",
          "type": "uint256"
        }
      ],
      "stateMutability": "view",
      "type": "function"
    },
    {
      "inputs": [
        {
          "internalType": "string",
          "name": "tokenURI",
          "type": "string"
        }
      ],
      "name": "createToken",
      "outputs": [
        {
          "internalType": "uint256",
          "name": "",
          "type": "uint256"
        }
      ],
      "stateMutability": "nonpayable",
      "type": "function"
    },
    {
      "inputs": [
        {
          "internalType": "uint256",
          "name": "tokenId",
          "type": "uint256"
        }
      ],
      "name": "getApproved",
      "outputs": [
        {
          "internalType": "address",
          "name": "",
          "type": "address"
        }
      ],
      "stateMutability": "view",
      "type": "function"
    },
    {
      "inputs": [
        {
          "internalType": "address",
          "name": "owner",
          "type": "address"
        },
        {
          "internalType": "address",
          "name": "operator",
          "type": "address"
        }
      ],
      "name": "isApprovedForAll",
      "outputs": [
        {
          "internalType": "bool",
          "name": "",
          "type": "bool"
        }
      ],
      "stateMutability": "view",
      "type": "function"
    },
    {
      "inputs": [],
      "name": "name",
      "outputs": [
        {
          "internalType": "string",
          "name": "",
          "type": "string"
        }
      ],
      "stateMutability": "view",
      "type": "function"
    },
    {
      "inputs": [
        {
          "internalType": "uint256",
          "name": "tokenId",
          "type": "uint256"
        }
      ],
      "name": "ownerOf",
      "outputs": [
        {
          "internalType": "address",
          "name": "",
          "type": "address"
        }
      ],
      "stateMutability": "view",
      "type": "function"
    },
    {
      "inputs": [
        {
          "internalType": "address",
          "name": "from",
          "type": "address"
        },
        {
          "internalType": "address",
          "name": "to",
          "type": "address"
        },
        {
          "internalType": "uint256",
          "name": "tokenId",
          "type": "uint256"
        }
      ],
      "name": "safeTransferFrom",
      "outputs": [],
      "stateMutability": "nonpayable",
      "type": "function"
    },
    {
      "inputs": [
        {
          "internalType": "address",
          "name": "from",
          "type": "address"
        },
        {
          "internalType": "address",
          "name": "to",
          "type": "address"
        },
        {
          "internalType": "uint256",
          "name": "tokenId",
          "type": "uint256"
        },
        {
          "internalType": "bytes",
          "name": "data",
          "type": "bytes"
        }
      ],
      "name": "safeTransferFrom",
      "outputs": [],
      "stateMutability": "nonpayable",
      "type": "function"
    },
    {
      "inputs": [
        {
          "internalType": "address",
          "name": "operator",
          "type": "address"
        },
        {
          "internalType": "bool",
          "name": "approved",
          "type": "bool"
        }
      ],
      "name": "setApprovalForAll",
      "outputs": [],
      "stateMutability": "nonpayable",
      "type": "function"
    },
    {
      "inputs": [
        {
          "internalType": "bytes4",
          "name": "interfaceId",
          "type": "bytes4"
        }
      ],
      "name": "supportsInterface",
      "outputs": [
        {
          "internalType": "bool",
          "name": "",
          "type": "bool"
        }
      ],
      "stateMutability": "view",
      "type": "function"
    },
    {
      "inputs": [],
      "name": "symbol",
      "outputs": [
        {
          "internalType": "string",
          "name": "",
          "type": "string"
        }
      ],
      "stateMutability": "view",
      "type": "function"
    },
    {
      "inputs": [
        {
          "internalType": "uint256",
          "name": "tokenId",
          "type": "uint256"
        }
      ],
      "name": "tokenURI",
      "outputs": [
        {
          "internalType": "string",
          "name": "",
          "type": "string"
        }
      ],
      "stateMutability": "view",
      "type": "function"
    },
    {
      "inputs": [
        {
          "internalType": "address",
          "name": "from",
          "type": "address"
        },
        {
          "internalType": "address",
          "name": "to",
          "type": "address"
        },
        {
          "internalType": "uint256",
          "name": "tokenId",
          "type": "uint256"
        }
      ],
      "name": "transferFrom",
      "outputs": [],
      "stateMutability": "nonpayable",
      "type": "function"
    }
  ],
  "bytecode": "0x60806040523480156200001157600080fd5b5060405162002fe738038062002fe783398181016040528101906200003791906200017b565b6040518060400160405280600981526020017f564f4d53204e46547300000000000000000000000000000000000000000000008152506040518060400160405280600781526020017f564f4d534e4654000000000000000000000000000000000000000000000000008152508160009081620000b4919062000427565b508060019081620000c6919062000427565b50505080600860006101000a81548173ffffffffffffffffffffffffffffffffffffffff021916908373ffffffffffffffffffffffffffffffffffffffff160217905550506200050e565b600080fd5b600073ffffffffffffffffffffffffffffffffffffffff82169050919050565b6000620001438262000116565b9050919050565b620001558162000136565b81146200016157600080fd5b50565b60008151905062000175816200014a565b92915050565b60006020828403121562000194576200019362000111565b5b6000620001a48482850162000164565b91505092915050565b600081519050919050565b7f4e487b7100000000000000000000000000000000000000000000000000000000600052604160045260246000fd5b7f4e487b7100000000000000000000000000000000000000000000000000000000600052602260045260246000fd5b600060028204905060018216806200022f57607f821691505b602082108103620002455762000244620001e7565b5b50919050565b60008190508160005260206000209050919050565b60006020601f8301049050919050565b600082821b905092915050565b600060088302620002af7fffffffffffffffffffffffffffffffffffffffffffffffffffffffffffffffff8262000270565b620002bb868362000270565b95508019841693508086168417925050509392505050565b6000819050919050565b6000819050919050565b60006200030862000302620002fc84620002d3565b620002dd565b620002d3565b9050919050565b6000819050919050565b6200032483620002e7565b6200033c62000333826200030f565b8484546200027d565b825550505050565b600090565b6200035362000344565b6200036081848462000319565b505050565b5b8181101562000388576200037c60008262000349565b60018101905062000366565b5050565b601f821115620003d757620003a1816200024b565b620003ac8462000260565b81016020851015620003bc578190505b620003d4620003cb8562000260565b83018262000365565b50505b505050565b600082821c905092915050565b6000620003fc60001984600802620003dc565b1980831691505092915050565b6000620004178383620003e9565b9150826002028217905092915050565b6200043282620001ad565b67ffffffffffffffff8111156200044e576200044d620001b8565b5b6200045a825462000216565b620004678282856200038c565b600060209050601f8311600181146200049f57600084156200048a578287015190505b62000496858262000409565b86555062000506565b601f198416620004af866200024b565b60005b82811015620004d957848901518255600182019150602085019450602081019050620004b2565b86831015620004f95784890151620004f5601f891682620003e9565b8355505b6001600288020188555050505b505050505050565b612ac9806200051e6000396000f3fe608060405234801561001057600080fd5b50600436106100ea5760003560e01c80636352211e1161008c578063a22cb46511610066578063a22cb4651461026f578063b88d4fde1461028b578063c87b56dd146102a7578063e985e9c5146102d7576100ea565b80636352211e146101f157806370a082311461022157806395d89b4114610251576100ea565b8063095ea7b3116100c8578063095ea7b31461016d57806323b872dd1461018957806342842e0e146101a557806345576f94146101c1576100ea565b806301ffc9a7146100ef57806306fdde031461011f578063081812fc1461013d575b600080fd5b6101096004803603810190610104919061185b565b610307565b60405161011691906118a3565b60405180910390f35b6101276103e9565b604051610134919061194e565b60405180910390f35b610157600480360381019061015291906119a6565b61047b565b6040516101649190611a14565b60405180910390f35b61018760048036038101906101829190611a5b565b6104c1565b005b6101a3600480360381019061019e9190611a9b565b6105d8565b005b6101bf60048036038101906101ba9190611a9b565b610638565b005b6101db60048036038101906101d69190611c23565b610658565b6040516101e89190611c7b565b60405180910390f35b61020b600480360381019061020691906119a6565b6106bc565b6040516102189190611a14565b60405180910390f35b61023b60048036038101906102369190611c96565b61076d565b6040516102489190611c7b565b60405180910390f35b610259610824565b604051610266919061194e565b60405180910390f35b61028960048036038101906102849190611cef565b6108b6565b005b6102a560048036038101906102a09190611dd0565b6108cc565b005b6102c160048036038101906102bc91906119a6565b61092e565b6040516102ce919061194e565b60405180910390f35b6102f160048036038101906102ec9190611e53565b610a40565b6040516102fe91906118a3565b60405180910390f35b60007f80ac58cd000000000000000000000000000000000000000000000000000000007bffffffffffffffffffffffffffffffffffffffffffffffffffffffff1916827bffffffffffffffffffffffffffffffffffffffffffffffffffffffff191614806103d257507f5b5e139f000000000000000000000000000000000000000000000000000000007bffffffffffffffffffffffffffffffffffffffffffffffffffffffff1916827bffffffffffffffffffffffffffffffffffffffffffffffffffffffff1916145b806103e257506103e182610ad4565b5b9050919050565b6060600080546103f890611ec2565b80601f016020809104026020016040519081016040528092919081815260200182805461042490611ec2565b80156104715780601f1061044657610100808354040283529160200191610471565b820191906000526020600020905b81548152906001019060200180831161045457829003601f168201915b5050505050905090565b600061048682610b3e565b6004600083815260200190815260200160002060009054906101000a900473ffffffffffffffffffffffffffffffffffffffff169050919050565b60006104cc826106bc565b90508073ffffffffffffffffffffffffffffffffffffffff168373ffffffffffffffffffffffffffffffffffffffff160361053c576040517f08c379a000000000000000000000000000000000000000000000000000000000815260040161053390611f65565b60405180910390fd5b8073ffffffffffffffffffffffffffffffffffffffff1661055b610b89565b73ffffffffffffffffffffffffffffffffffffffff16148061058a575061058981610584610b89565b610a40565b5b6105c9576040517f08c379a00000000000000000000000000000000000000000000000000000000081526004016105c090611ff7565b60405180910390fd5b6105d38383610b91565b505050565b6105e96105e3610b89565b82610c4a565b610628576040517f08c379a000000000000000000000000000000000000000000000000000000000815260040161061f90612089565b60405180910390fd5b610633838383610cdf565b505050565b610653838383604051806020016040528060008152506108cc565b505050565b60006106646007610f45565b60006106706007610f5b565b905061067c3382610f69565b6106868184610f87565b6106b3600860009054906101000a900473ffffffffffffffffffffffffffffffffffffffff1660016108b6565b80915050919050565b6000806002600084815260200190815260200160002060009054906101000a900473ffffffffffffffffffffffffffffffffffffffff169050600073ffffffffffffffffffffffffffffffffffffffff168173ffffffffffffffffffffffffffffffffffffffff1603610764576040517f08c379a000000000000000000000000000000000000000000000000000000000815260040161075b906120f5565b60405180910390fd5b80915050919050565b60008073ffffffffffffffffffffffffffffffffffffffff168273ffffffffffffffffffffffffffffffffffffffff16036107dd576040517f08c379a00000000000000000000000000000000000000000000000000000000081526004016107d490612187565b60405180910390fd5b600360008373ffffffffffffffffffffffffffffffffffffffff1673ffffffffffffffffffffffffffffffffffffffff168152602001908152602001600020549050919050565b60606001805461083390611ec2565b80601f016020809104026020016040519081016040528092919081815260200182805461085f90611ec2565b80156108ac5780601f10610881576101008083540402835291602001916108ac565b820191906000526020600020905b81548152906001019060200180831161088f57829003601f168201915b5050505050905090565b6108c86108c1610b89565b8383610ff4565b5050565b6108dd6108d7610b89565b83610c4a565b61091c576040517f08c379a000000000000000000000000000000000000000000000000000000000815260040161091390612089565b60405180910390fd5b61092884848484611160565b50505050565b606061093982610b3e565b600060066000848152602001908152602001600020805461095990611ec2565b80601f016020809104026020016040519081016040528092919081815260200182805461098590611ec2565b80156109d25780601f106109a7576101008083540402835291602001916109d2565b820191906000526020600020905b8154815290600101906020018083116109b557829003601f168201915b5050505050905060006109e36111bc565b905060008151036109f8578192505050610a3b565b600082511115610a2d578082604051602001610a159291906121e3565b60405160208183030381529060405292505050610a3b565b610a36846111d3565b925050505b919050565b6000600560008473ffffffffffffffffffffffffffffffffffffffff1673ffffffffffffffffffffffffffffffffffffffff16815260200190815260200160002060008373ffffffffffffffffffffffffffffffffffffffff1673ffffffffffffffffffffffffffffffffffffffff16815260200190815260200160002060009054906101000a900460ff16905092915050565b60007f01ffc9a7000000000000000000000000000000000000000000000000000000007bffffffffffffffffffffffffffffffffffffffffffffffffffffffff1916827bffffffffffffffffffffffffffffffffffffffffffffffffffffffff1916149050919050565b610b478161123b565b610b86576040517f08c379a0000000000000000000000000000000000000000000000000000000008152600401610b7d906120f5565b60405180910390fd5b50565b600033905090565b816004600083815260200190815260200160002060006101000a81548173ffffffffffffffffffffffffffffffffffffffff021916908373ffffffffffffffffffffffffffffffffffffffff160217905550808273ffffffffffffffffffffffffffffffffffffffff16610c04836106bc565b73ffffffffffffffffffffffffffffffffffffffff167f8c5be1e5ebec7d5bd14f71427d1e84f3dd0314c0f7b2291e5b200ac8c7c3b92560405160405180910390a45050565b600080610c56836106bc565b90508073ffffffffffffffffffffffffffffffffffffffff168473ffffffffffffffffffffffffffffffffffffffff161480610c985750610c978185610a40565b5b80610cd657508373ffffffffffffffffffffffffffffffffffffffff16610cbe8461047b565b73ffffffffffffffffffffffffffffffffffffffff16145b91505092915050565b8273ffffffffffffffffffffffffffffffffffffffff16610cff826106bc565b73ffffffffffffffffffffffffffffffffffffffff1614610d55576040517f08c379a0000000000000000000000000000000000000000000000000000000008152600401610d4c90612279565b60405180910390fd5b600073ffffffffffffffffffffffffffffffffffffffff168273ffffffffffffffffffffffffffffffffffffffff1603610dc4576040517f08c379a0000000000000000000000000000000000000000000000000000000008152600401610dbb9061230b565b60405180910390fd5b610dcf8383836112a7565b610dda600082610b91565b6001600360008573ffffffffffffffffffffffffffffffffffffffff1673ffffffffffffffffffffffffffffffffffffffff1681526020019081526020016000206000828254610e2a919061235a565b925050819055506001600360008473ffffffffffffffffffffffffffffffffffffffff1673ffffffffffffffffffffffffffffffffffffffff1681526020019081526020016000206000828254610e81919061238e565b92505081905550816002600083815260200190815260200160002060006101000a81548173ffffffffffffffffffffffffffffffffffffffff021916908373ffffffffffffffffffffffffffffffffffffffff160217905550808273ffffffffffffffffffffffffffffffffffffffff168473ffffffffffffffffffffffffffffffffffffffff167fddf252ad1be2c89b69c2b068fc378daa952ba7f163c4a11628f55a4df523b3ef60405160405180910390a4610f408383836112ac565b505050565b6001816000016000828254019250508190555050565b600081600001549050919050565b610f838282604051806020016040528060008152506112b1565b5050565b610f908261123b565b610fcf576040517f08c379a0000000000000000000000000000000000000000000000000000000008152600401610fc690612434565b60405180910390fd5b80600660008481526020019081526020016000209081610fef9190612600565b505050565b8173ffffffffffffffffffffffffffffffffffffffff168373ffffffffffffffffffffffffffffffffffffffff1603611062576040517f08c379a00000000000000000000000000000000000000000000000000000000081526004016110599061271e565b60405180910390fd5b80600560008573ffffffffffffffffffffffffffffffffffffffff1673ffffffffffffffffffffffffffffffffffffffff16815260200190815260200160002060008473ffffffffffffffffffffffffffffffffffffffff1673ffffffffffffffffffffffffffffffffffffffff16815260200190815260200160002060006101000a81548160ff0219169083151502179055508173ffffffffffffffffffffffffffffffffffffffff168373ffffffffffffffffffffffffffffffffffffffff167f17307eab39ab6107e8899845ad3d59bd9653f200f220920489ca2b5937696c318360405161115391906118a3565b60405180910390a3505050565b61116b848484610cdf565b6111778484848461130c565b6111b6576040517f08c379a00000000000000000000000000000000000000000000000000000000081526004016111ad906127b0565b60405180910390fd5b50505050565b606060405180602001604052806000815250905090565b60606111de82610b3e565b60006111e86111bc565b905060008151116112085760405180602001604052806000815250611233565b8061121284611493565b6040516020016112239291906121e3565b6040516020818303038152906040525b915050919050565b60008073ffffffffffffffffffffffffffffffffffffffff166002600084815260200190815260200160002060009054906101000a900473ffffffffffffffffffffffffffffffffffffffff1673ffffffffffffffffffffffffffffffffffffffff1614159050919050565b505050565b505050565b6112bb83836115f3565b6112c8600084848461130c565b611307576040517f08c379a00000000000000000000000000000000000000000000000000000000081526004016112fe906127b0565b60405180910390fd5b505050565b600061132d8473ffffffffffffffffffffffffffffffffffffffff166117cc565b15611486578373ffffffffffffffffffffffffffffffffffffffff1663150b7a02611356610b89565b8786866040518563ffffffff1660e01b81526004016113789493929190612825565b6020604051808303816000875af19250505080156113b457506040513d601f19601f820116820180604052508101906113b19190612886565b60015b611436573d80600081146113e4576040519150601f19603f3d011682016040523d82523d6000602084013e6113e9565b606091505b50600081510361142e576040517f08c379a0000000000000000000000000000000000000000000000000000000008152600401611425906127b0565b60405180910390fd5b805181602001fd5b63150b7a0260e01b7bffffffffffffffffffffffffffffffffffffffffffffffffffffffff1916817bffffffffffffffffffffffffffffffffffffffffffffffffffffffff19161491505061148b565b600190505b949350505050565b6060600082036114da576040518060400160405280600181526020017f300000000000000000000000000000000000000000000000000000000000000081525090506115ee565b600082905060005b6000821461150c5780806114f5906128b3565b915050600a82611505919061292a565b91506114e2565b60008167ffffffffffffffff81111561152857611527611af8565b5b6040519080825280601f01601f19166020018201604052801561155a5781602001600182028036833780820191505090505b5090505b600085146115e757600182611573919061235a565b9150600a85611582919061295b565b603061158e919061238e565b60f81b8183815181106115a4576115a361298c565b5b60200101907effffffffffffffffffffffffffffffffffffffffffffffffffffffffffffff1916908160001a905350600a856115e0919061292a565b945061155e565b8093505050505b919050565b600073ffffffffffffffffffffffffffffffffffffffff168273ffffffffffffffffffffffffffffffffffffffff1603611662576040517f08c379a000000000000000000000000000000000000000000000000000000000815260040161165990612a07565b60405180910390fd5b61166b8161123b565b156116ab576040517f08c379a00000000000000000000000000000000000000000000000000000000081526004016116a290612a73565b60405180910390fd5b6116b7600083836112a7565b6001600360008473ffffffffffffffffffffffffffffffffffffffff1673ffffffffffffffffffffffffffffffffffffffff1681526020019081526020016000206000828254611707919061238e565b92505081905550816002600083815260200190815260200160002060006101000a81548173ffffffffffffffffffffffffffffffffffffffff021916908373ffffffffffffffffffffffffffffffffffffffff160217905550808273ffffffffffffffffffffffffffffffffffffffff16600073ffffffffffffffffffffffffffffffffffffffff167fddf252ad1be2c89b69c2b068fc378daa952ba7f163c4a11628f55a4df523b3ef60405160405180910390a46117c8600083836112ac565b5050565b6000808273ffffffffffffffffffffffffffffffffffffffff163b119050919050565b6000604051905090565b600080fd5b600080fd5b60007fffffffff0000000000000000000000000000000000000000000000000000000082169050919050565b61183881611803565b811461184357600080fd5b50565b6000813590506118558161182f565b92915050565b600060208284031215611871576118706117f9565b5b600061187f84828501611846565b91505092915050565b60008115159050919050565b61189d81611888565b82525050565b60006020820190506118b86000830184611894565b92915050565b600081519050919050565b600082825260208201905092915050565b60005b838110156118f85780820151818401526020810190506118dd565b60008484015250505050565b6000601f19601f8301169050919050565b6000611920826118be565b61192a81856118c9565b935061193a8185602086016118da565b61194381611904565b840191505092915050565b600060208201905081810360008301526119688184611915565b905092915050565b6000819050919050565b61198381611970565b811461198e57600080fd5b50565b6000813590506119a08161197a565b92915050565b6000602082840312156119bc576119bb6117f9565b5b60006119ca84828501611991565b91505092915050565b600073ffffffffffffffffffffffffffffffffffffffff82169050919050565b60006119fe826119d3565b9050919050565b611a0e816119f3565b82525050565b6000602082019050611a296000830184611a05565b92915050565b611a38816119f3565b8114611a4357600080fd5b50565b600081359050611a5581611a2f565b92915050565b60008060408385031215611a7257611a716117f9565b5b6000611a8085828601611a46565b9250506020611a9185828601611991565b9150509250929050565b600080600060608486031215611ab457611ab36117f9565b5b6000611ac286828701611a46565b9350506020611ad386828701611a46565b9250506040611ae486828701611991565b9150509250925092565b600080fd5b600080fd5b7f4e487b7100000000000000000000000000000000000000000000000000000000600052604160045260246000fd5b611b3082611904565b810181811067ffffffffffffffff82111715611b4f57611b4e611af8565b5b80604052505050565b6000611b626117ef565b9050611b6e8282611b27565b919050565b600067ffffffffffffffff821115611b8e57611b8d611af8565b5b611b9782611904565b9050602081019050919050565b82818337600083830152505050565b6000611bc6611bc184611b73565b611b58565b905082815260208101848484011115611be257611be1611af3565b5b611bed848285611ba4565b509392505050565b600082601f830112611c0a57611c09611aee565b5b8135611c1a848260208601611bb3565b91505092915050565b600060208284031215611c3957611c386117f9565b5b600082013567ffffffffffffffff811115611c5757611c566117fe565b5b611c6384828501611bf5565b91505092915050565b611c7581611970565b82525050565b6000602082019050611c906000830184611c6c565b92915050565b600060208284031215611cac57611cab6117f9565b5b6000611cba84828501611a46565b91505092915050565b611ccc81611888565b8114611cd757600080fd5b50565b600081359050611ce981611cc3565b92915050565b60008060408385031215611d0657611d056117f9565b5b6000611d1485828601611a46565b9250506020611d2585828601611cda565b9150509250929050565b600067ffffffffffffffff821115611d4a57611d49611af8565b5b611d5382611904565b9050602081019050919050565b6000611d73611d6e84611d2f565b611b58565b905082815260208101848484011115611d8f57611d8e611af3565b5b611d9a848285611ba4565b509392505050565b600082601f830112611db757611db6611aee565b5b8135611dc7848260208601611d60565b91505092915050565b60008060008060808587031215611dea57611de96117f9565b5b6000611df887828801611a46565b9450506020611e0987828801611a46565b9350506040611e1a87828801611991565b925050606085013567ffffffffffffffff811115611e3b57611e3a6117fe565b5b611e4787828801611da2565b91505092959194509250565b60008060408385031215611e6a57611e696117f9565b5b6000611e7885828601611a46565b9250506020611e8985828601611a46565b9150509250929050565b7f4e487b7100000000000000000000000000000000000000000000000000000000600052602260045260246000fd5b60006002820490506001821680611eda57607f821691505b602082108103611eed57611eec611e93565b5b50919050565b7f4552433732313a20617070726f76616c20746f2063757272656e74206f776e6560008201527f7200000000000000000000000000000000000000000000000000000000000000602082015250565b6000611f4f6021836118c9565b9150611f5a82611ef3565b604082019050919050565b60006020820190508181036000830152611f7e81611f42565b9050919050565b7f4552433732313a20617070726f76652063616c6c6572206973206e6f7420746f60008201527f6b656e206f776e6572206e6f7220617070726f76656420666f7220616c6c0000602082015250565b6000611fe1603e836118c9565b9150611fec82611f85565b604082019050919050565b6000602082019050818103600083015261201081611fd4565b9050919050565b7f4552433732313a2063616c6c6572206973206e6f7420746f6b656e206f776e6560008201527f72206e6f7220617070726f766564000000000000000000000000000000000000602082015250565b6000612073602e836118c9565b915061207e82612017565b604082019050919050565b600060208201905081810360008301526120a281612066565b9050919050565b7f4552433732313a20696e76616c696420746f6b656e2049440000000000000000600082015250565b60006120df6018836118c9565b91506120ea826120a9565b602082019050919050565b6000602082019050818103600083015261210e816120d2565b9050919050565b7f4552433732313a2061646472657373207a65726f206973206e6f74206120766160008201527f6c6964206f776e65720000000000000000000000000000000000000000000000602082015250565b60006121716029836118c9565b915061217c82612115565b604082019050919050565b600060208201905081810360008301526121a081612164565b9050919050565b600081905092915050565b60006121bd826118be565b6121c781856121a7565b93506121d78185602086016118da565b80840191505092915050565b60006121ef82856121b2565b91506121fb82846121b2565b91508190509392505050565b7f4552433732313a207472616e736665722066726f6d20696e636f72726563742060008201527f6f776e6572000000000000000000000000000000000000000000000000000000602082015250565b60006122636025836118c9565b915061226e82612207565b604082019050919050565b6000602082019050818103600083015261229281612256565b9050919050565b7f4552433732313a207472616e7366657220746f20746865207a65726f2061646460008201527f7265737300000000000000000000000000000000000000000000000000000000602082015250565b60006122f56024836118c9565b915061230082612299565b604082019050919050565b60006020820190508181036000830152612324816122e8565b9050919050565b7f4e487b7100000000000000000000000000000000000000000000000000000000600052601160045260246000fd5b600061236582611970565b915061237083611970565b92508282039050818111156123885761238761232b565b5b92915050565b600061239982611970565b91506123a483611970565b92508282019050808211156123bc576123bb61232b565b5b92915050565b7f45524337323155524953746f726167653a2055524920736574206f66206e6f6e60008201527f6578697374656e7420746f6b656e000000000000000000000000000000000000602082015250565b600061241e602e836118c9565b9150612429826123c2565b604082019050919050565b6000602082019050818103600083015261244d81612411565b9050919050565b60008190508160005260206000209050919050565b60006020601f8301049050919050565b600082821b905092915050565b6000600883026124b67fffffffffffffffffffffffffffffffffffffffffffffffffffffffffffffffff82612479565b6124c08683612479565b95508019841693508086168417925050509392505050565b6000819050919050565b60006124fd6124f86124f384611970565b6124d8565b611970565b9050919050565b6000819050919050565b612517836124e2565b61252b61252382612504565b848454612486565b825550505050565b600090565b612540612533565b61254b81848461250e565b505050565b5b8181101561256f57612564600082612538565b600181019050612551565b5050565b601f8211156125b45761258581612454565b61258e84612469565b8101602085101561259d578190505b6125b16125a985612469565b830182612550565b50505b505050565b600082821c905092915050565b60006125d7600019846008026125b9565b1980831691505092915050565b60006125f083836125c6565b9150826002028217905092915050565b612609826118be565b67ffffffffffffffff81111561262257612621611af8565b5b61262c8254611ec2565b612637828285612573565b600060209050601f83116001811461266a5760008415612658578287015190505b61266285826125e4565b8655506126ca565b601f19841661267886612454565b60005b828110156126a05784890151825560018201915060208501945060208101905061267b565b868310156126bd57848901516126b9601f8916826125c6565b8355505b6001600288020188555050505b505050505050565b7f4552433732313a20617070726f766520746f2063616c6c657200000000000000600082015250565b60006127086019836118c9565b9150612713826126d2565b602082019050919050565b60006020820190508181036000830152612737816126fb565b9050919050565b7f4552433732313a207472616e7366657220746f206e6f6e20455243373231526560008201527f63656976657220696d706c656d656e7465720000000000000000000000000000602082015250565b600061279a6032836118c9565b91506127a58261273e565b604082019050919050565b600060208201905081810360008301526127c98161278d565b9050919050565b600081519050919050565b600082825260208201905092915050565b60006127f7826127d0565b61280181856127db565b93506128118185602086016118da565b61281a81611904565b840191505092915050565b600060808201905061283a6000830187611a05565b6128476020830186611a05565b6128546040830185611c6c565b818103606083015261286681846127ec565b905095945050505050565b6000815190506128808161182f565b92915050565b60006020828403121561289c5761289b6117f9565b5b60006128aa84828501612871565b91505092915050565b60006128be82611970565b91507fffffffffffffffffffffffffffffffffffffffffffffffffffffffffffffffff82036128f0576128ef61232b565b5b600182019050919050565b7f4e487b7100000000000000000000000000000000000000000000000000000000600052601260045260246000fd5b600061293582611970565b915061294083611970565b9250826129505761294f6128fb565b5b828204905092915050565b600061296682611970565b915061297183611970565b925082612981576129806128fb565b5b828206905092915050565b7f4e487b7100000000000000000000000000000000000000000000000000000000600052603260045260246000fd5b7f4552433732313a206d696e7420746f20746865207a65726f2061646472657373600082015250565b60006129f16020836118c9565b91506129fc826129bb565b602082019050919050565b60006020820190508181036000830152612a20816129e4565b9050919050565b7f4552433732313a20746f6b656e20616c7265616479206d696e74656400000000600082015250565b6000612a5d601c836118c9565b9150612a6882612a27565b602082019050919050565b60006020820190508181036000830152612a8c81612a50565b905091905056fea264697066735822122078a67eece0a3b72a507f61452139b20bab315eb126a00c4e2bd28765be763ce064736f6c63430008130033",
  "linkReferences": {},
  "deployedLinkReferences": {}
}